:020000040800F2
:10000000F0070020CD01000895140008CB1100086E
:1000100059140008D3020008A71A000800000000C5
:100020000000000000000000000000005D17000854
:10003000D5020008000000005B1700085F170008E9
:10004000E7010008E7010008E7010008E7010008F0
:10005000E7010008E7010008E7010008E7010008E0
:10006000E7010008E7010008E7010008E7010008D0
:10007000E7010008E7010008E7010008E7010008C0
:10008000E7010008E7010008E7010008E7010008B0
:10009000E7010008E7010008E7010008E7010008A0
:1000A000E7010008E7010008E7010008E701000890
:1000B000E7010008E7010008E7010008E701000880
:1000C000E7010008E7010008E7010008E701000870
:1000D000E7010008E7010008E7010008E701000860
:1000E000E7010008E7010008E7010008D117000850
:1000F000F5170008E9170008DD170008E7010008F8
:10010000E7010008E7010008C5170008E70100083B
:10011000E7010008E7010008E7010008E70100081F
:10012000E7010008E7010008E7010008E70100080F
:1001300000F002F800F03AF80AA090E8000C8244BF
:100140008344AAF10107DA4501D100F02FF8AFF29C
:10015000090EBAE80F0013F0010F18BFFB1A43F0A5
:1001600001031847D81F0000F81F0000103A24BFF1
:1001700078C878C1FAD8520724BF30C830C144BF0C
:1001800004680C607047000000230024002500264E
:10019000103A28BF78C1FBD8520728BF30C148BFEA
:1001A0000B6070471FB51FBD10B510BD00F058F8AB
:1001B0001146FFF7F7FF01F087FC00F076F803B473
:1001C000FFF7F2FF03BC00F07DF80000094880470C
:1001D00009480047FEE7FEE7FEE7FEE7FEE7FEE729
:1001E000FEE7FEE7FEE7FEE704480549054A064B41
:1001F00070470000C117000831010008F00100201D
:10020000F0070020F0030020F00300204FF0000270
:1002100000B5134694469646203922BFA0E80C50FC
:10022000A0E80C50B1F12001BFF4F7AF090728BFD7
:10023000A0E80C5048BF0CC05DF804EB890028BF53
:1002400040F8042B08BF704748BF20F8022B11F07C
:10025000804F18BF00F8012B7047704770477047F8
:10026000754600F02BF8AE4605006946534620F06F
:100270000700854618B020B5FFF7B6FFBDE820405F
:100280004FF000064FF000074FF000084FF0000B52
:1002900021F00701AC46ACE8C009ACE8C009ACE805
:1002A000C009ACE8C0098D46704710B50446AFF3ED
:1002B00000802046BDE81040FFF781BF004870472E
:1002C0008C01002001491820ABBEFEE72600020089
:1002D0007047FEE7704772B6FEE700002DE9F84F61
:1002E000DFF8C8910024A9F1040B23460F2709F178
:1002F000040AABF1040ED1E00125A54006EA05028F
:10030000AA4276D1DFF8A8C14E68A6EB0C08664574
:100310002BD00DDC032E34D005DC36B3012E19D0E2
:10032000022E2FD11BE0112E16D0122E2AD119E049
:10033000B8F5881F19D006DCB8F5803F15D0B8F5A0
:10034000801F1FD111E0B8F5001F0ED0B8F5041FB3
:1003500018D10AE0CB6815E0CB681B1D12E0CB6812
:1003600008330FE0CB680C330CE08B682BB1012B0A
:100370004FF0080303D0456104E0042302E0056167
:1003800000E00023FF2A01D8064601E000F1040640
:100390004FEA840501D9A5F12005D6F8008007FAB7
:1003A00005FC28EA0C0803FA05F548EA0508C6F832
:1003B00000804D68ED0070D53E4DAE6946F00106F7
:1003C000AE61AD6924F0030605F0010500953A4DD4
:1003D00006EB050CDCF80850A607360F07FA06F8FE
:1003E00025EA0805DFF8D480404503D14FF0000826
:1003F00025E052E0DFF8C880404502D14FF0010807
:100400001DE0DFF8C080404502D14FF0020816E041
:10041000DFF8B480404502D14FF003080FE0DFF869
:10042000AC80404502D14FF0040808E0DFF8A0801E
:10043000404502D14FF0050801E04FF0060808FAE8
:1004400006F848EA0508CCF808804D68D9F800603D
:10045000ED024D4601D5164300E096432E604D68EF
:10046000DAF80060AD02554601D5164300E0964328
:100470002E604D68DBF80060AD035D4601D5164384
:1004800000E096432E604D68DEF80060ED0375468F
:1004900001D5164300E096432E60641C0A68164698
:1004A000E2407FF429AFBDE8F88F00000804014066
:1004B000000011100010024000000140000801403F
:1004C000000C0140001001400014014000180140E0
:1004D000001C01400AB1016170470904FBE70000FC
:1004E00001488068704700000000002002488168D1
:1004F000027811448160704700000020074810B561
:10050000016841F010010160032000F075F80F2030
:1005100000F006F800F024F8002010BD0020024092
:1005200070B50D4D04464FF47A712878B1FBF0F0A8
:100530000A490968B1FBF0F000F0BCFA48B9102C88
:1005400007D200222146501E00F036F800206C60D1
:1005500070BD012070BD0000000000200C000020D4
:100560000C4808B5816941F001018161816901F0A0
:1005700001010091C16941F08051C161C06900F081
:10058000805000900448416821F0E06141F0007122
:10059000416008BD0010024000000140002809DB56
:1005A00000F01F02012191404009800000F1E0208D
:1005B000C0F8001170470000F0B40E4B1B680C46E9
:1005C000C3F30223C3F10705042D00D90425191D27
:1005D000072901D2002300E0DB1E012606FA05F1FF
:1005E000491E214099409E40761E16403143F0BC82
:1005F00001F05ABA0CED00E0064900F00702086865
:100600004FF6FF03184040EA0220034A10430860F7
:10061000704700000CED00E00000FA052DE9F047FE
:100620000F46050061D0434E306800F00700B84225
:1006300009D2306820F0070038433060306800F09D
:100640000700B84251D128683B4C810712D54007BA
:1006500003D5606840F4E06060602878000703D547
:10066000606840F4605060606068A96820F0F00045
:10067000084360602878C00728D06868012810D037
:100680002168022810D0890700292EDA616821F03C
:10069000030101436160FFF723FF804641F288397F
:1006A0000DE021688903EFE78901EDE7FFF718FF07
:1006B000A0EB0801494502D90320BDE8F087606836
:1006C000696800F00C00B0EB810FEFD1306800F0EA
:1006D0000700B8420BD9306820F00700384330607B
:1006E000306800F00700B84201D00120E5E7287823
:1006F000400705D56068E96820F4E0600843606061
:100700002878000706D56068296920F4605040EA1F
:10071000C100606000F018F86168084AC1F3031175
:10072000515CC8400649086006480068FFF7F8FEBB
:100730000020C2E700200240001002403A1B0008DF
:100740000C000020040000200E4A51680E4801F001
:100750000C03042B11D0082B0FD10C48C1F3834399
:10076000C903C05C0AD55168084AC1F34041921ED2
:10077000515C054A5043B0FBF1F0704704494843CF
:10078000704700000010024000127A002A1B000887
:1007900000093D002DE9F84F040070D02078C04DCD
:1007A000C00749D06868C0F38100012807D0686895
:1007B000C0F38100022809D16868C00306D5286803
:1007C000800339D560680028E7D035E06068B0F56F
:1007D000803F0BD010B1B0F5A02F11D0286820F4C5
:1007E00080302860286820F4802002E0286840F4E7
:1007F00080302860606890B1FFF772FE06460AE01C
:10080000286840F480202860F0E700BFFFF768FE0A
:10081000801B642873D828688003F7D50CE0FFF7A5
:100820005FFE064605E000BFFFF75AFE801B642806
:10083000F0D828688003F7D420789A4E80074FF0CC
:1008400001094FF0000839D5686810F00C0F07D087
:100850006868C0F38100022809D16868C00306D423
:100860002868800714D52069012808D110E0206984
:10087000B0B1C6F80090FFF733FE074605E00AE185
:10088000FFF72EFEC01B0228C4D828688007F7D5C2
:100890002868616920F0F80040EAC10028600DE096
:1008A000C6F80080FFF71CFE074604E0FFF718FEBD
:1008B000C01B022823D828688007F7D420780007B7
:1008C0002CD57948A169D9B1C0F80090FFF708FE8E
:1008D000074604E0FFF704FEC01B02280FD8686A31
:1008E0008007F7D571484FF4FA510068B0FBF1F07A
:1008F000009000BF0098411E0091FAD20EE080E007
:10090000C0F80080FFF7ECFD074604E0FFF7E8FDC4
:10091000C01B022875D8686A8007F7D42078400782
:1009200060D5E8690027C00008D4E86940F080502D
:10093000E861E869012700F0805000905C48016898
:10094000C90513D40168834641F480710160FFF743
:10095000C7FD824606E000BFFFF7C2FDA0EB0A001C
:1009600064284ED8DBF80000C005F5D5E068012802
:100970000AD008B1052813D0286A20F001002862A7
:10098000286A20F0040002E0286A40F00100286292
:10099000E06841F2883B98B1FFF7A2FD82460BE088
:1009A000286A40F004002862EEE700BFFFF798FDD8
:1009B000A0EB0A0159455AD8286A8007F6D50CE001
:1009C000FFF78EFD824605E0FFF78AFDA0EB0A01E6
:1009D00059454CD8286A8007F6D41FB1E86920F041
:1009E0008050E861E06988B36968C1F38101022938
:1009F00044D00228C6F8608004D0FFF771FD044699
:100A000038E034E0FFF76CFD074604E0FFF768FDCF
:100A1000C01B02282BD828688001F7D4206AB0F5C3
:100A2000803F05D16868A16820F400300843686001
:100A3000D4E908010843696821F474110843686027
:100A4000C6F86090FFF74CFD044606E025E000BFC5
:100A5000FFF746FD001B022809D828688001F7D55A
:100A60001BE000BFFFF73CFD001B022802D903205A
:100A7000BDE8F88F28688001F4D40EE00128F7D093
:100A80006868226A00F48031914204D1616A00F4FE
:100A90007010884201D00120EAE70020E8E700005A
:100AA0000010024000004242800442420C0000203C
:100AB0000070004010B5401EB0F1807F01D30120CE
:100AC00010BD4FF0E02460610F21601700F0ECFFD3
:100AD0000020A06107202061002010BD70477047F2
:100AE00010B590F83C20012A22D0012280F83C2049
:100AF000CA688C6822F4407222434C6822F48062F7
:100B000022430C6822F4006222430C6922F48052D2
:100B100022434C6922F400522243C969002322F483
:100B200080420A4301684A6480F83C30002010BDCE
:100B3000022010BD70B590F83C20012A2CD0012471
:100B400080F83C40022280F83D2003685A689D6886
:100B500022F070060A6832435A60104B02689A42CB
:100B60000ED00F4B9A420BD0B2F1804F08D00D4BF4
:100B70009A4205D00C4B9A4202D00C4B9A4204D1B7
:100B8000496825F080031943916080F83D400021B9
:100B900080F83C10084670BD022070BD002C01405A
:100BA000003401400004004000080040000C0040F8
:100BB00010B5040003D094F83D0010B107E0012007
:100BC00010BD002084F83C00204600F01FF80220F1
:100BD00084F83D00211D206800F012FE012084F8F9
:100BE000460084F83E0084F83F0084F8400084F812
:100BF000410084F8420084F8430084F8440084F8FB
:100C0000450084F83D00002010BD000008B50168D3
:100C10002548B1F1804F11D0244A914217D1C169C2
:100C200041F00801C161C069002200F00800009095
:100C300011463220FFF7C0FC322031E0C16941F09B
:100C40000101C161C06900F00100009008BD184AAF
:100C50009142FBD1816941F4005181618069002298
:100C600000F40050009011462B20FFF7A5FC2B202C
:100C7000FFF794FC002211462C20FFF79DFC2C204E
:100C8000FFF78CFC002211462D20FFF795FC2D204C
:100C9000FFF784FC002211462E20FFF78DFC2E204A
:100CA000BDE80840FFF77ABC00100240000C00408D
:100CB0000034014090F83D10012901D00120704717
:100CC000022180F83D100168CA6842F00102CA6042
:100CD00000680E4988420ED00D4988420BD0B0F111
:100CE000804F08D00B49884205D00B49884202D07A
:100CF0000A49884204D1816801F00701062903D01E
:100D0000016841F00101016000207047002C0140A2
:100D1000003401400004004000080040000C004086
:100D200070B5044690F83C000025012817D0012634
:100D300084F83C60022084F83D002068826822F03C
:100D4000770222F47F4282600868502838D00DDC98
:100D500020284FD005DC90B3102811D14AE00220A2
:100D600070BD302846D040280AD13BE060282FD003
:100D700070280DD0B0F5805F03D0B0F5005F12D0C1
:100D8000012584F83D60002084F83C00284670BDB1
:100D9000CB68D1E90121206800F08DFD20688168D1
:100DA00041F0770109E0CB68D1E90121206800F02A
:100DB00082FD2068816841F480418160E1E719E0AB
:100DC000CA684968206800F04BFE5021206806E0A0
:100DD000CA684968206800F054FE6021206800F06D
:100DE00074FDCEE7CA684968206800F039FE4021EA
:100DF0002068F4E7226801461046F0E770472DE9C5
:100E0000F04104460068C66805694FF00007A9076D
:100E100013D5B10711D5F91E016101202077206893
:100E200080698007204602D0FFF7E8FF04E000F069
:100E3000B7F8204600F049F92777680716D57007FC
:100E400014D521686FF00400086102202077206823
:100E5000806910F4407F204602D0FFF7CFFF04E006
:100E600000F09EF8204600F030F92777280715D5C6
:100E7000300713D521686FF008000861042020773F
:100E80002068C0698007204602D0FFF7B7FF04E062
:100E900000F086F8204600F018F92777E80616D506
:100EA000F00614D521686FF0100008610820207743
:100EB0002068C06910F4407F204602D0FFF79EFFF3
:100EC00004E000F06DF8204600F0FFF82777E8070F
:100ED00008D0F00706D021686FF0010008612046B5
:100EE00000F04EF9280608D5300606D521686FF0C7
:100EF000800008612046FFF7F1FD680608D57006FE
:100F000006D521686FF040000861204600F05CF9CA
:100F1000A8060AD5B00608D521686FF02000086140
:100F20002046BDE8F041FFF7DABDBDE8F0810000E2
:100F300000B585B0002100910191029103910268F2
:100F400013490220B2F1804F14D0124B9A420FD1B4
:100F50008A6942F010028A618969039001F01001E8
:100F600004914021CDE9001069460B48FFF7B6F91E
:100F700005B000BD8A6942F004028A618969009067
:100F800001F004010190CDE9030169460348EDE752
:100F900000100240003401400010014000080140F0
:100FA000704770B5044690F83C0000260D460128B5
:100FB0000FD0012084F83C006AB1042A1DD0082A11
:100FC0002FD00C2A3FD00126002084F83C00304668
:100FD00070BD022070BD206800F080FC206881692F
:100FE00041F0080181612068816921F0040181617B
:100FF000206881692A69114311E0206800F09EFC95
:101000002068816941F4006181612068816921F46F
:1010100080618161206881692A6941EA02218161D8
:10102000D2E7206800F0C0FC2068C16941F00801E7
:10103000C1612068C16921F00401C1612068C169F2
:101040002A69114311E0206800F0E2FC2068C169C0
:1010500041F40061C1612068C16921F48061C1610E
:101060002068C1692A6941EA0221C161ACE710B573
:10107000040003D094F83D0010B107E0012010BD3A
:10108000002084F83C00204600F01EF8022084F87E
:101090003D00211D206800F0B3FB012084F84600CC
:1010A00084F83E0084F83F0084F8400084F8410052
:1010B00084F8420084F8430084F8440084F8450032
:1010C00084F83D00002010BD7047704710B50446FD
:1010D000022249B104290ED0082913D094F8410006
:1010E000012816D0012010BD94F83E000128F9D146
:1010F00084F83E200FE094F83F000128F2D184F8F4
:101100003F2008E094F840000128EBD184F840200B
:1011100001E084F841200122206800F0BFFB134960
:101120002068134A884201D0904203D1436C43F4B3
:1011300000434364206888420DD090420BD0B0F148
:10114000804F08D00B49884205D00B49884202D015
:101150000A49884204D1816801F00701062903D0B9
:10116000016841F001010160002010BD002C014028
:10117000003401400004004000080040000C004022
:101180000E49884219D10E4801784278914202D224
:1011900001F1010102E002D9A1F101010170084948
:1011A000007801F1040151F8200006490A68D06274
:1011B000C86009684FEA500088637047FC0000204F
:1011C00010000020B40000207047FEE72DE9F04138
:1011D00086B0002528480095019502950395816900
:1011E00041F010018161816901F010010491816970
:1011F00041F020018161816901F020010491816940
:1012000041F004018161816901F004010491816967
:1012100041F0080181618069184F00F008000490D6
:10122000002224213846FFF755F9DFF854800022C8
:101230004AF2C0014046FFF74DF92420012403265D
:101240008DE8710069463846FFF748F84FF42040B2
:101250008DE8710069464046FFF740F8C0200090D5
:101260001120CDE90104694640460394FFF736F8A2
:1012700006B0BDE8F08100000010024000100140FF
:10128000000C014030B58DB00025079508950995F3
:101290000A950B951C2168460C95FEF7B7FF214C6B
:1012A0004FF0804020604720C4E901054FF41C70D6
:1012B000C4E903052046A561FFF77AFC08B1FFF7F2
:1012C0000AF84FF48050079007A91648FFF728FD49
:1012D00008B1FFF700F81348FFF7C9FE08B1FEF7A1
:1012E000FAFF0B950BA90F480C95FFF723FC08B1EB
:1012F000FEF7F1FF6020CDE9000502950422694662
:1013000008480495FFF74DFE08B1FEF7E4FF20689A
:10131000816921F4006181610248FFF709FE0DB087
:1013200030BD0000B400002010B586B0002417487E
:101330000094019402940394049413490594016069
:1013400041F61F41C0E9011440F2E731C0E903143E
:101350008461FFF72DFC08B1FEF7BDFF4FF480500C
:10136000009069460948FFF7DBFC08B1FEF7B3FFC0
:10137000049404A905480594FFF7DCFB002801D07C
:10138000FEF7A9FF06B010BD000C0040FC000020D5
:1013900010B596B000240F941094119412941394E5
:1013A0001C2108A81494FEF731FF20216846FEF79F
:1013B0002DFF284826490160C721C0E90114E0211A
:1013C000C0E903148021C0E90541FFF7F1FB08B132
:1013D000FEF781FF4FF480500F900FA91D48FFF7D3
:1013E0009FFC08B1FEF777FF1A48FFF740FE08B1EF
:1013F000FEF771FF139413A916481494FFF79AFB94
:1014000008B1FEF768FF6020CDE908040A940B9448
:101410000C940D94002208A90E480E94FFF7C1FD0C
:1014200008B1FEF758FF00944FF40050CDE9044096
:10143000029401940394694606480794FFF750FB11
:1014400008B1FEF748FF0348FFF772FD16B010BD64
:101450000034014044010020FEE7000002464FF442
:1014600000410148FFF736B8000C0140012801D0C7
:10147000012200E000224FF400510148FFF72AB892
:10148000000C0140272800D92720014948707047E7
:1014900010000020FEE770B500240021204600F077
:1014A000D4F80025002000F047F96D1CEDB2802D26
:1014B000F8D3641CE4B2082CEFD370BD10B5064C11
:1014C000012240212046FFF705F820460122BDE811
:1014D00010408021FEF7FEBF000C01402DE9F041D5
:1014E0000024124E0746802525FA04F23A40802156
:1014F0003046FEF7EFFF012240213046FEF7EAFFBB
:10150000002240213046FEF7E5FF641CE4B2082CBF
:10151000EAD3012240213046FEF7DCFF3046BDE829
:10152000F04100224021FEF7D5BF0000000C014031
:1015300010B50B4C012280212046FEF7CBFF012283
:1015400040212046FEF7C6FF002280212046FEF7FC
:10155000C1FF20460022BDE810404021FEF7BABF7F
:10156000000C014010B5094C002280212046FEF7F6
:10157000B1FF012240212046FEF7ACFF20460122A8
:10158000BDE810408021FEF7A5BF0000000C01401F
:1015900010B500204FF47A720021491C9142FCD30F
:1015A000401C9042F8D3FFF789FFAE2000F0B3F85B
:1015B000D52000F0B0F8802000F0ADF8A82000F0B1
:1015C000AAF83F2000F0A7F8D32000F0A4F80020EC
:1015D00000F0A1F8402000F09EF8A12000F09BF858
:1015E000C82000F098F8DA2000F095F8122000F0FA
:1015F00092F8812000F08FF8CF2000F08CF8D920ED
:1016000000F089F8F12000F086F8DB2000F083F884
:10161000302000F080F8A42000F07DF8A62000F033
:101620007AF88D2000F077F8142000F074F8AF20DD
:1016300000F071F8BDE81040FFF72DBF0246012011
:1016400000E05043491EFCD2704710B50C4640F0F4
:10165000B00000F060F8102040EA141000F05BF8D1
:1016600004F00F00BDE8104000F055B82DE9F0413E
:101670000746CE004000083E801E15464FF0FF385A
:10168000F1B2C0B2FFF7E1FF1148002400EB0515ED
:101690002819A0F5805090F8000E00F04DF8641C59
:1016A000E4B2082CF4D308EB4700F1B2C0B2FFF764
:1016B000CCFF00242819A0F5805090F8080E00F007
:1016C0003BF8641CE4B2082CF4D3BDE8F0810000C0
:1016D0004A1B00082DE9F04700241D46164688469F
:1016E00081460A2713E0291B0A20491EFFF7A6FF9F
:1016F000B6FBF0F0B0FBF7F107FB110208EB0400BA
:10170000C1B248463032FFF7B1FF641CE4B2AC42CC
:10171000E9D3BDE8F08710B50446FFF709FF78204C
:10172000FFF7DCFE0020FFF7D9FE2046FFF7D6FECC
:10173000BDE81040FFF716BF10B50446FFF7F8FEEE
:101740007820FFF7CBFE4020FFF7C8FE2046FFF7CA
:10175000C5FEBDE81040FFF705BF70477047FEF7B4
:10176000C5BE30B58FB028216846FEF74FFD142165
:101770000AA8FEF74BFD01210804CDE90010002462
:10178000029402250491CDE907504FF4E01009902E
:101790006846FEF7FFFF08B172B6FEE70F20CDE9FD
:1017A0000A054FF48060CDE90C4002210AA80E948E
:1017B000FEF734FF002801D072B6FEE70FB030BD4F
:1017C000704700000148FFF71ABB0000FC00002032
:1017D0000148FFF714BB0000440100200148FFF757
:1017E0000EBB0000440100200148FFF708BB0000C9
:1017F000440100200148FFF702BB00004401002023
:10180000F0B50268204C214D214E224F224B4FF063
:10181000804CA04209D0984207D0604505D0A8422C
:1018200003D0B04201D0B84204D122F0700E4A6811
:1018300042EA0E02A04209D0984207D0604505D086
:10184000A84203D0B04201D0B84203D122F440757F
:10185000CA682A434D6922F080022A4302608A68DE
:10186000C2620A688262A04201D0984201D109692D
:101870000163012141610169C90703D0016921F0B8
:1018800001010161F0BD0000002C01400004004096
:1018900000080040000C00400034014010B501F089
:1018A0001F030121046A99408C430462016A9A4033
:1018B0001143016210BD10B5846842EA032224F48A
:1018C0007F440A432243826010BD826822F0700286
:1018D0000A4342F00701816070470000F0B5036AD7
:1018E000026A22F00102026242688469124E24F008
:1018F00073050C682C4323F002058B682B430D4DB8
:10190000A84201D0B04205D123F00807CB683B4381
:1019100023F00403A84201D0B04205D14D6922F45E
:10192000407215438A692A43426084614968416371
:101930000362F0BD002C014000340140F0B5026AA2
:10194000036A23F010030362436884690D6824F47A
:10195000E64444EA05248D6822F0200242EA05129A
:101960000F4D104EA84201D0B04206D1CF6822F0F0
:10197000800242EA071222F04002A84201D0B0429F
:1019800007D14D6923F4406343EA85038D6943EA37
:10199000850343608461496881630262F0BD000091
:1019A000002C014000340140F0B5026A036A23F4C0
:1019B000807303624368C46922F4007224F07305E3
:1019C0000C68124E2C438D6842EA05220E4DA84247
:1019D00001D0B04206D1CF6822F4006242EA072269
:1019E00022F48062A84201D0B04207D14D6923F4AD
:1019F000405343EA05138D6943EA05134360C4610C
:101A00004968C1630262F0BD002C0140003401400E
:101A100030B5046A026A22F4805202624268C369E5
:101A20000D6823F4E64343EA05238D6824F400544B
:101A300044EA0534084DA84202D0084DA84204D11A
:101A40004D6922F4804242EA85124260C3614968CE
:101A50000164046230BD0000002C014000340140EC
:101A600010B5036A046A24F001040462846924F056
:101A7000F00444EA021423F00A020A438461026279
:101A800010BD10B5036A046A24F01004046284696E
:101A900023F0A00324F4704444EA023243EA011123
:101AA0008261016210BDFEE70907090E002804DB10
:101AB00000F1E02080F80014704700F00F0000F102
:101AC000E02080F8141D7047FEF718FDFFF749FE6F
:101AD000FFF77CFBFFF75CFCFFF7D4FBFFF724FC70
:101AE000FFF756FD04210D48FFF7F0FA0C48FFF709
:101AF000E1F80120FFF7BAFC0120FFF7AFFC00205E
:101B0000FFF7C0FC074C2720FFF7BCFC0121032393
:101B100022780846FFF7DEFDF5E70000B40000205C
:101B2000FC0000201000002001020203040506074B
:101B300008090A0B0C0D0E0F101000000000000029
:101B4000000001020304060708090000000000006D
:101B500000000000000000000000000000F800008D
:101B60000000000000333000000000100C06100CD4
:101B70000600000000000000000040C07840C0786F
:101B80004000043F04043F040400007088FC083057
:101B90000000001820FF211E0000F008F000E018EF
:101BA000000000211C031E211E0000F008887000A8
:101BB00000001E2123241927211010160E000000FA
:101BC00000000000000000000000000000E0180419
:101BD0000200000000071820400000020418E00086
:101BE00000000040201807000000404080F08040C6
:101BF00040000202010F01020200000000F000009C
:101C000000000101011F01010100000000000000AF
:101C1000000080B070000000000000000000000024
:101C200000000001010101010101000000000000AD
:101C30000000003030000000000000000000806064
:101C40001804006018060100000000E010080810E9
:101C5000E000000F102020100F00001010F800000E
:101C600000000020203F20200000007008080888A5
:101C70007000003028242221300000300888884875
:101C800030000018202020110E000000C02010F8A5
:101C9000000000070424243F240000F80888880876
:101CA00008000019212020110E0000E0108888187B
:101CB0000000000F112020110E0000380808C8385D
:101CC00008000000003F000000000070880808883D
:101CD0007000001C222121221C0000E010080810C6
:101CE000E0000000312222110F00000000C0C000FF
:101CF0000000000000303000000000000080000004
:101D00000000000080600000000000008040201003
:101D100008000001020408102000404040404040FC
:101D2000400004040404040404000008102040805F
:101D30000000002010080402010000704808080894
:101D4000F0000000003036010000C030C828E81064
:101D5000E0000718272423140B000000C038E0001F
:101D60000000203C23020227382008F88888887069
:101D70000000203F202020110E00C0300808080875
:101D80003800071820202010080008F8080808105C
:101D9000E000203F202020100F0008F88888E80885
:101DA0001000203F20202320180008F88888E80829
:101DB0001000203F200003000000C0300808083851
:101DC000000007182020221E020008F80800000862
:101DD000F808203F210101213F20000808F80808E9
:101DE00000000020203F2020000000000808F80824
:101DF0000800C08080807F00000008F888C0281894
:101E00000800203F20012638200008F808000000C4
:101E10000000203F20202020300008F8F800F8F8CB
:101E20000800203F003F003F200008F830C00008B5
:101E3000F808203F200007183F00E01008080810AD
:101E4000E0000F10202020100F0008F808080808F4
:101E5000F000203F210101010000E01008080810F7
:101E6000E0000F18242438504F0008F8888888882C
:101E70007000203F2000030C302000708808080804
:101E800038000038202121221C00180808F8080812
:101E900018000000203F2000000008F8080000089B
:101EA000F808001F202020201F000878880000C8A4
:101EB0003808000007380E010000F80800F8000894
:101EC000F800033C0700073C03000818688080689E
:101ED000180820302C03032C30200838C800C838DC
:101EE00008000000203F2000000010080808C83843
:101EF00008002038262120201800000000FE0202E1
:101F000002000000007F40404000000C30C0000094
:101F10000000000000010638C00000020202FE00BE
:101F20000000004040407F00000000000402020268
:101F3000040000000000000000000000000000009D
:101F40000000808080808080808000020204000089
:101F50000000000000000000000000008080808081
:101F600000000019242222223F2008F8008080006F
:101F70000000003F112020110E0000000080808032
:101F80000000000E11202020110000000080808839
:101F9000F800000E112020103F200000808080807B
:101FA0000000001F222222221300008080F0888877
:101FB00088180020203F20200000000080808080C2
:101FC0008000006B94949493600008F800808080F7
:101FD0000000203F210000203F2000809898000052
:101FE00000000020203F2020000000000080989882
:101FF000000000C08080807F000008F80000808022
:102000008000203F24022D302000000808F8000046
:1020100000000020203F2020000080808080808001
:102020008000203F20003F20003F80800080808093
:102030000000203F210000203F20000080808080A1
:102040000000001F202020201F00808000808000D2
:10205000000080FFA12020110E0000000080808081
:102060008000000E112020A0FF80808080008080F2
:10207000800020203F21200001000000808080801F
:1020800080000033242424241900008080E0808014
:1020900000000000001F2020000080800000008061
:1020A0008000001F202020103F20808080000080C2
:1020B000808000010E3008060100808000800080D2
:1020C00080800F300C030C300F0000808000808077
:1020D00080000020312E0E312000808080000080A2
:1020E000808080818E701806010000808080808052
:1020F00080000021302C2221300000000000807C74
:10210000020200000000003F404000000000FF000D
:10211000000000000000FF0000000002027C8000C0
:1021200000000040403F00000000000601010202E4
:102130000404000000000000000000005C21000812
:1021400000000020B40000006C010008102200080C
:10215000B40000203C0700008801000801000000D6
:10216000100000000000000000127A0000000000D3
:10217000A7610000D33000008C2000006918000027
:102180008713000045100000F20D0000340C000021
:10219000D80A0000C3090000DF0800002208000080
:1021A00082070000F8060000810600001906000002
:1021B000BD0500006B05000022050000E1040000E1
:1021C000A50400006F0400003D040000100400009E
:1021D000E7030000C00300009C0300007B03000035
:1021E0005D03000040030000250300000C03000015
:1021F000F4020000DE020000C9020000B502000087
:10220000A2020000900200008002000070020000A4
:0400000508000131BD
:00000001FF
