:020000040800F2
:10000000B8080020CD0100085D1D0008C3180008D5
:10001000851C0008D30200088525000800000000A8
:10002000000000000000000000000000B91F0008F0
:10003000D5020008000000006B1F0008BB1F00086D
:10004000E7010008E7010008E7010008E7010008F0
:10005000E7010008E7010008E7010008E7010008E0
:10006000E7010008E7010008E7010008E7010008D0
:10007000E7010008E7010008E7010008E7010008C0
:10008000E7010008E7010008E7010008E7010008B0
:10009000E7010008E7010008E7010008E7010008A0
:1000A000E7010008E7010008E7010008E701000890
:1000B00021200008E7010008E7010008E701000827
:1000C000E7010008E7010008E7010008E701000870
:1000D000E7010008E70100086D2500087925000800
:1000E000E7010008E7010008E7010008E701000850
:1000F00039200008E7010008E7010008E7010008CF
:10010000E7010008E70100082D200008E7010008CA
:10011000E7010008E7010008E7010008E70100081F
:10012000E7010008E7010008E7010008E70100080F
:1001300000F002F800F03AF80AA090E8000C8244BF
:100140008344AAF10107DA4501D100F02FF8AFF29C
:10015000090EBAE80F0013F0010F18BFFB1A43F0A5
:100160000103184780270000A0270000103A24BF91
:1001700078C878C1FAD8520724BF30C830C144BF0C
:1001800004680C607047000000230024002500264E
:10019000103A28BF78C1FBD8520728BF30C148BFEA
:1001A0000B6070471FB51FBD10B510BD00F058F8AB
:1001B0001146FFF7F7FF02F007FA00F076F803B4F4
:1001C000FFF7F2FF03BC00F07DF80000094880470C
:1001D00009480047FEE7FEE7FEE7FEE7FEE7FEE729
:1001E000FEE7FEE7FEE7FEE704480549054A064B41
:1001F000704700001D20000831010008B8020020EF
:10020000B8080020B8040020B80400204FF0000215
:1002100000B5134694469646203922BFA0E80C50FC
:10022000A0E80C50B1F12001BFF4F7AF090728BFD7
:10023000A0E80C5048BF0CC05DF804EB890028BF53
:1002400040F8042B08BF704748BF20F8022B11F07C
:10025000804F18BF00F8012B7047704770477047F8
:10026000754600F02BF8AE4605006946534620F06F
:100270000700854618B020B5FFF7B6FFBDE820405F
:100280004FF000064FF000074FF000084FF0000B52
:1002900021F00701AC46ACE8C009ACE8C009ACE805
:1002A000C009ACE8C0098D46704710B50446AFF3ED
:1002B00000802046BDE81040FFF781BF004870472E
:1002C0005402002001491820ABBEFEE726000200C0
:1002D0007047FEE7704772B6FEE710B590F8211040
:1002E0000022022905D00421816380F8202001200A
:1002F00010BD01680B6823F00E030B6001680B68EA
:1003000023F001030B6090F84030C46B012101FA27
:1003100003F3636080F8211080F82020104610BDA0
:100320002DE9F05F90F821100024022903D0042168
:100330008163012485E001680A6822F00E020A60E8
:1003400001680A6822F001020A603F4E3E4FB21572
:10035000DFF8F4C0DFF8F090DFF8ECA0DFF8E8B0E9
:10036000DFF8E4E00168783F13011502ACF1640C9A
:10037000A9F15009AAF13C0AABF1280BAEF1140E19
:100380004FF48018B14227D9B9420ED0614512D03E
:1003900049451DD0514518D0594518D0714501D156
:1003A000424615E0294EB14201D1012210E0274E0C
:1003B0001436B14201D110220AE0244E2836B1424F
:1003C00006D0224A3C32914201D11A4600E02A4628
:1003D0001E49091F0A602BE0B94213D0614517D0AE
:1003E000494522D051451DD059451DD0714501D1F7
:1003F00042461AE0B14202D14FF0807215E0134E2E
:10040000B14201D1012210E0104E1436B14201D1A7
:1004100010220AE00D4E2836B14206D00B4A3C327B
:10042000914201D11A4600E02A46074980394A60C4
:10043000012180F82110002180F82010416B01B1CA
:1004400088472046BDE8F09F800002400804024033
:100450002DE9F84FDFF8C8910024A9F1040B2346D9
:100460000F2709F1040AABF1040ED1E00125A540E4
:1004700006EA0502AA4276D1DFF8A8C14E68A6EBCB
:100480000C0866452BD00DDC032E34D005DC36B3CA
:10049000012E19D0022E2FD11BE0112E16D0122EB4
:1004A0002AD119E0B8F5881F19D006DCB8F5803FCD
:1004B00015D0B8F5801F1FD111E0B8F5001F0ED080
:1004C000B8F5041F18D10AE0CB6815E0CB681B1DF6
:1004D00012E0CB6808330FE0CB680C330CE08B687C
:1004E0002BB1012B4FF0080303D0456104E0042336
:1004F00002E0056100E00023FF2A01D8064601E082
:1005000000F104064FEA840501D9A5F12005D6F8CB
:10051000008007FA05FC28EA0C0803FA05F548EA0A
:100520000508C6F800804D68ED0070D53E4DAE69F7
:1005300046F00106AE61AD6924F0030605F0010541
:1005400000953A4D06EB050CDCF80850A607360F6F
:1005500007FA06F825EA0805DFF8D480404503D1FC
:100560004FF0000825E052E0DFF8C880404502D196
:100570004FF001081DE0DFF8C080404502D14FF088
:10058000020816E0DFF8B480404502D14FF00308BE
:100590000FE0DFF8AC80404502D14FF0040808E0DE
:1005A000DFF8A080404502D14FF0050801E04FF090
:1005B000060808FA06F848EA0508CCF808804D68ED
:1005C000D9F80060ED024D4601D5164300E0964390
:1005D0002E604D68DAF80060AD02554601D516432D
:1005E00000E096432E604D68DBF80060AD035D4689
:1005F00001D5164300E096432E604D68DEF800609A
:10060000ED03754601D5164300E096432E60641C49
:100610000A681646E2407FF429AFBDE8F88F000073
:1006200008040140000011100010024000000140C9
:1006300000080140000C014000100140001401407E
:1006400000180140001C01400AB101617047090413
:10065000FBE70000014880687047000000000020B0
:1006600002488168027811448160704700000020D0
:10067000074810B5016841F010010160032000F047
:1006800075F80F2000F006F800F024F8002010BDE7
:100690000020024070B50D4D04464FF47A71287861
:1006A000B1FBF0F00A490968B1FBF0F000F0DCFAA8
:1006B00048B9102C07D200222146501E00F036F80F
:1006C00000206C6070BD012070BD000000000020A3
:1006D0000C0000200C4808B5816941F001018161DE
:1006E000816901F001010091C16941F08051C1614E
:1006F000C06900F0805000900448416821F0E0613A
:1007000041F00071416008BD00100240000001404E
:10071000002809DB00F01F02012191404009800000
:1007200000F1E020C0F8001170470000F0B40E4B5B
:100730001B680C46C3F30223C3F10705042D00D93F
:100740000425191D072901D2002300E0DB1E012624
:1007500006FA05F1491E214099409E40761E16403A
:100760003143F0BC01F020BF0CED00E0064900F081
:10077000070208684FF6FF03184040EA0220034AC8
:1007800010430860704700000CED00E00000FA051F
:100790002DE9F0470F46050061D0434E306800F068
:1007A0000700B84209D2306820F0070038433060B3
:1007B000306800F00700B84251D128683B4C8107EF
:1007C00012D5400703D5606840F4E0606060287887
:1007D000000703D5606840F4605060606068A968F5
:1007E00020F0F000084360602878C00728D06868CF
:1007F000012810D02168022810D0890700292EDA9C
:10080000616821F0030101436160FFF723FF804627
:1008100041F288390DE021688903EFE78901EDE7AE
:10082000FFF718FFA0EB0801494502D90320BDE8F6
:10083000F0876068696800F00C00B0EB810FEFD1C1
:10084000306800F00700B8420BD9306820F007008C
:1008500038433060306800F00700B84201D0012012
:10086000E5E72878400705D56068E96820F4E0608E
:10087000084360602878000706D56068296920F47D
:10088000605040EAC100606000F038F86168084AD2
:10089000C1F30311515CC84006490860064800686E
:1008A000FFF7F8FE0020C2E70020024000100240DF
:1008B000CA2800080C000020040000200448054954
:1008C00000684968044AC1F30221515CC84070477E
:1008D0000C00002000100240DA28000804480549F6
:1008E00000684968044AC1F3C221515CC84070479E
:1008F0000C00002000100240DA2800080E4A51685F
:100900000E4801F00C03042B11D0082B0FD10C481A
:10091000C1F38343C903C05C0AD55168084AC1F3D7
:100920004041921E515C054A5043B0FBF1F07047C4
:1009300004494843704700000010024000127A004A
:10094000BA28000800093D002DE9F84F040070D0D6
:100950002078C04DC00749D06868C0F381000128E5
:1009600007D06868C0F38100022809D16868C00315
:1009700006D52868800339D560680028E7D035E0BF
:100980006068B0F5803F0BD010B1B0F5A02F11D04A
:10099000286820F480302860286820F4802002E055
:1009A000286840F480302860606890B1FFF752FEFC
:1009B00006460AE0286840F480202860F0E700BF7F
:1009C000FFF748FE801B642873D828688003F7D59A
:1009D0000CE0FFF73FFE064605E000BFFFF73AFEDA
:1009E000801B6428F0D828688003F7D420789A4EBA
:1009F00080074FF001094FF0000839D5686810F002
:100A00000C0F07D06868C0F38100022809D168681C
:100A1000C00306D42868800714D52069012808D1AE
:100A200010E02069B0B1C6F80090FFF713FE07464A
:100A300005E00AE1FFF70EFEC01B0228C4D82868B3
:100A40008007F7D52868616920F0F80040EAC10006
:100A500028600DE0C6F80080FFF7FCFD074604E0C3
:100A6000FFF7F8FDC01B022823D828688007F7D4B9
:100A7000207800072CD57948A169D9B1C0F8009039
:100A8000FFF7E8FD074604E0FFF7E4FDC01B02287E
:100A90000FD8686A8007F7D571484FF4FA5100689B
:100AA000B0FBF1F0009000BF0098411E0091FAD217
:100AB0000EE080E0C0F80080FFF7CCFD074604E0C0
:100AC000FFF7C8FDC01B022875D8686A8007F7D4F5
:100AD0002078400760D5E8690027C00008D4E8699D
:100AE00040F08050E861E869012700F080500090F4
:100AF0005C480168C90513D40168834641F48071DC
:100B00000160FFF7A7FD824606E000BFFFF7A2FDE8
:100B1000A0EB0A0064284ED8DBF80000C005F5D52C
:100B2000E06801280AD008B1052813D0286A20F00F
:100B300001002862286A20F0040002E0286A40F0E0
:100B400001002862E06841F2883B98B1FFF782FD1E
:100B500082460BE0286A40F004002862EEE700BFFE
:100B6000FFF778FDA0EB0A0159455AD8286A80079B
:100B7000F6D50CE0FFF76EFD824605E0FFF76AFD53
:100B8000A0EB0A0159454CD8286A8007F6D41FB15A
:100B9000E86920F08050E861E06988B36968C1F3D2
:100BA0008101022944D00228C6F8608004D0FFF7F2
:100BB00051FD044638E034E0FFF74CFD074604E001
:100BC000FFF748FDC01B02282BD828688001F7D406
:100BD000206AB0F5803F05D16868A16820F4003034
:100BE00008436860D4E908010843696821F4741176
:100BF00008436860C6F86090FFF72CFD044606E0E5
:100C000025E000BFFFF726FD001B022809D8286851
:100C10008001F7D51BE000BFFFF71CFD001B022879
:100C200002D90320BDE8F88F28688001F4D40EE0D3
:100C30000128F7D06868226A00F48031914204D11B
:100C4000616A00F47010884201D00120EAE70020B8
:100C5000E8E70000001002400000424280044242E7
:100C60000C0000200070004010B5401EB0F1807FE5
:100C700001D3012010BD4FF0E02460610F21601707
:100C800001F092FC0020A06107202061002010BD2F
:100C90007047704710B590F83C20012A22D00122FD
:100CA00080F83C20CA688C6822F4407222434C6869
:100CB00022F4806222430C6822F4006222430C6911
:100CC00022F4805222434C6922F400522243C96923
:100CD000002322F480420A4301684A6480F83C30D1
:100CE000002010BD022010BD70B590F83C20012AF4
:100CF0002CD0012480F83C40022280F83D2003687B
:100D00005A689D6822F070060A6832435A60104B98
:100D100002689A420ED00F4B9A420BD0B2F1804F2C
:100D200008D00D4B9A4205D00C4B9A4202D00C4B86
:100D30009A4204D1496825F080031943916080F8F4
:100D40003D40002180F83C10084670BD022070BD77
:100D5000002C014000340140000400400008004025
:100D6000000C004010B5040003D094F83D0010B111
:100D700007E0012010BD002084F83C00204600F070
:100D80001FF8022084F83D00211D206801F05AF967
:100D9000012084F8460084F83E0084F83F0084F87F
:100DA000400084F8410084F8420084F8430084F84D
:100DB000440084F8450084F83D00002010BD000088
:100DC00008B501681D48B1F1804F11D01C4A91420D
:100DD0001DD1C16941F00801C161C069002200F064
:100DE0000800009002213220FFF7A0FC32201FE013
:100DF000C16941F00101C161C069002200F0010038
:100E0000009001211C20FFF791FC1C2010E00D4AEE
:100E1000914211D1816941F40051816180690022C0
:100E200000F40050009001212C20FFF77FFC2C20C3
:100E3000BDE80840FFF76CBC08BD00000010024090
:100E4000000C00400034014090F83D10012901D011
:100E500001207047022180F83D100168CA6842F005
:100E60000102CA6000680E4988420ED00D498842CE
:100E70000BD0B0F1804F08D00B49884205D00B4908
:100E8000884202D00A49884204D1816801F00701F2
:100E9000062903D0016841F001010160002070477C
:100EA000002C0140003401400004004000080040D4
:100EB000000C004070B5044690F83C000025012865
:100EC00017D0012684F83C60022084F83D00206899
:100ED000826822F0770222F47F42826008685028FC
:100EE00038D00DDC20284FD005DC90B3102811D16C
:100EF0004AE0022070BD302846D040280AD13BE0AD
:100F000060282FD070280DD0B0F5805F03D0B0F5E9
:100F1000005F12D0012584F83D60002084F83C0079
:100F2000284670BDCB68D1E90121206801F0E5F8C1
:100F30002068816841F0770109E0CB68D1E901219F
:100F4000206801F0DAF82068816841F4804181600E
:100F5000E1E719E0CA684968206801F0A3F9502167
:100F6000206806E0CA684968206801F0ACF9602191
:100F7000206801F0CCF8CEE7CA684968206801F023
:100F800091F940212068F4E7226801461046F0E715
:100F900070472DE9F04104460068C66805694FF0C6
:100FA0000007A90713D5B10711D5F91E016101206A
:100FB0002077206880698007204602D0FFF7E8FF8D
:100FC00004E000F0B7F8204600F049F927776807F9
:100FD00016D5700714D521686FF00400086102204F
:100FE00020772068806910F4407F204602D0FFF708
:100FF000CFFF04E000F09EF8204600F030F927779C
:10100000280715D5300713D521686FF0080008614F
:10101000042020772068C0698007204602D0FFF7AF
:10102000B7FF04E000F086F8204600F018F92777B3
:10103000E80616D5F00614D521686FF01000086197
:10104000082020772068C06910F4407F204602D035
:10105000FFF79EFF04E000F06DF8204600F0FFF877
:101060002777E80708D0F00706D021686FF0010065
:101070000861204600F04EF9280608D5300606D54E
:1010800021686FF0800008612046FFF701FE6806C6
:1010900008D5700606D521686FF04000086120462B
:1010A00000F082F9A8060AD5B00608D521686FF0CD
:1010B000200008612046BDE8F041FFF7EABDBDE829
:1010C000F081000000B585B00021009101910291EE
:1010D0000391026813490220B2F1804F14D0124BE1
:1010E0009A420FD18A6942F010028A61896903909D
:1010F00001F0100104914021CDE9001069460B4830
:10110000FFF7A6F905B000BD8A6942F004028A61C2
:101110008969009001F004010190CDE9030169465D
:101120000348EDE700100240003401400010014088
:1011300000080140704770B5044690F83C00002656
:101140000D4601280FD0012084F83C006AB1042A22
:101150001DD0082A2FD00C2A3FD00126002084F869
:101160003C00304670BD022070BD206800F0D8FF02
:101170002068816941F0080181612068816921F05E
:1011800004018161206881692A69114311E02068A6
:1011900000F0F6FF2068816941F4006181612068F8
:1011A000816921F480618161206881692A6941EA4D
:1011B00002218161D2E7206801F018F82068C16936
:1011C00041F00801C1612068C16921F00401C161D9
:1011D0002068C1692A69114311E0206801F03AF8DA
:1011E0002068C16941F40061C1612068C16921F4CE
:1011F0008061C1612068C1692A6941EA0221C16137
:10120000ACE710B5040003D094F83D0010B107E03E
:10121000012010BD002084F83C00204600F01EF89C
:10122000022084F83D00211D206800F00BFF012002
:1012300084F8460084F83E0084F83F0084F84000BB
:1012400084F8410084F8420084F8430084F84400A4
:1012500084F8450084F83D00002010BD70477047B9
:1012600010B50446022249B104290ED0082913D032
:1012700094F84100012816D0012010BD94F83E00DA
:101280000128F9D184F83E200FE094F83F000128AE
:10129000F2D184F83F2008E094F840000128EBD117
:1012A00084F8402001E084F841200122206800F009
:1012B00017FF13492068134A884201D0904203D196
:1012C000436C43F400434364206888420DD090424D
:1012D0000BD0B0F1804F08D00B49884205D00B49A4
:1012E000884202D00A49884204D1816801F007018E
:1012F000062903D0016841F001010160002010BD02
:10130000002C01400034014000040040000800406F
:10131000000C004010B5204C204B214A2149A0422E
:101320002DD108784C78A04202D200F1010002E0F1
:1013300002D9A0F1010008708878CC78A04202D2CE
:1013400000F1010002E002D9A0F101008870154807
:101350000C7800F10C00897850F8244050F82100F6
:101360001168CC62D46012684FEA54019163196825
:10137000C862D86019684FEA5000486310BD9042B7
:1013800003D14868401C486010BD9842FCD1886871
:10139000401C886010BD0000280100207001002062
:1013A000E0000020100000207047704770470000E8
:1013B000F8B5016804460868CA684B6910F00F0F59
:1013C0004FF0000559D003F0010602F4907737433F
:1013D00065D0C10705D0D10503D5616C41F001018D
:1013E0006164410705D5D90703D0616C41F0020162
:1013F0006164810705D5D90703D0616C41F0040110
:101400006164010707D502F02001314303D0616C0C
:1014100041F008016164616C00293AD0800604D56E
:10142000900602D5204600F08FFF20684069616C6D
:10143000C0F38010090700D460B3204600F05DFFC0
:1014400020684069400621D52068143050E8001F0C
:1014500021F0400140E80012002AF5D1E06BA8B16C
:101460006D494163E06BFEF75BFF002811D0E06B34
:10147000416B01B0BDE8F040084783060FD59306E5
:101480000DD52046BDE8F84000F05EBF2046FFF7CE
:101490008DFFF8BD2046FFF789FF6564F8BD266B18
:1014A0002023012E7CD1C6067AD5D60678D50868C9
:1014B0004868009048694FF00206400640D5E16B4D
:1014C000086840680004000CE8D0A28D8242E5D98B
:1014D000E085886920282DD020680C3050E8001F56
:1014E00021F4807140E80012002AF5D12068143000
:1014F00050E8001F21F0010140E80012002AF5D158
:101500002068143050E8001F21F0400140E800122C
:10151000002AF5D184F84230256320680C3050E869
:10152000001F21F0100140E80012002AF5D1E06B05
:10153000FEF7D3FE6663A08DE18D401A81B22AE0EA
:10154000A08DE18D401A81B2E08D0028A6D000293F
:10155000A4D022680C3252E8000F20F4907042E8C8
:101560000007002FF5D12068143050E8002F22F03A
:10157000010240E80027002FF5D184F842302563AE
:1015800020680C3050E8002F22F0100240E80023C1
:10159000002BF5D166632046FFF707FFF8BDFFE794
:1015A00005062BD5150629D594F841002128F5D13B
:1015B000A068B0F5805F01D12069B0B1206A411CFC
:1015C0002162216800784860E08C401E0004000C15
:1015D000E084E3D12068C16821F08001C160206807
:1015E000C16841F04001C160D8E7206A0088C0F3BB
:1015F00008004860206A801C2062E5E74006CDD5DF
:101600005006CBD5CA68204622F04002CA6084F852
:10161000413000F055F9C1E7EB22000870B5040035
:1016200004D094F84100002510B106E0012070BDFF
:1016300084F84050204600F023F8242084F841002C
:101640002068C16821F40051C160204600F0DEFE30
:101650002068016921F4904101612068416921F00D
:101660002A0141612068C16841F40051C16065648C
:10167000202084F8410084F842006563002070BD9A
:1016800030B585B0002400940194029403942E4D4B
:1016900003682E4802210322AB4227D1C36943F4D9
:1016A0000033C361C36903F400330493836943F0D7
:1016B000040383618069264D00F004000490042037
:1016C000CDE90001039269462846FEF7C1FE0820D5
:1016D000CDE90004694628460294FEF7B9FE0022CF
:1016E00002212620FFF722F8262029E0194DAB42DF
:1016F00028D1C36943F48023C361C36903F4802301
:101700000493836943F0080383618069039200F0C6
:10171000080004902815CDE900010F4D69462846C0
:10172000FEF796FEE814CDE90004694628460294C7
:10173000FEF78EFE002203212720FEF7F7FF272069
:10174000FEF7E6FF05B030BD004400400010024047
:101750000008014000480040000C014090F8423071
:10176000202B01D00220704721B11AB1002303635E
:1017700000F0A8BE0120704770B50446204884429E
:1017800003D101221F49FFF7E9FF1F48844235D1E9
:101790001E4C1F4A1F49E07810B1012808D016E0FE
:1017A0000878552813D110700120A070E0700EE069
:1017B000A07800250A2811D00978532901D00128E2
:1017C00003D01154401CA07001E0A570E570BDE885
:1017D000704001220F490C48FFF7C0BF0878907293
:1017E000B2F9060000F014FF6FF00E0101F026F8C8
:1017F000094900F025FF09490860E6E770BD0000CF
:10180000B8010020C400002000020020C800002011
:1018100048020020BC00002000003443C00000202B
:101820002DE9F843044690F84100984616460D46C7
:10183000202802D00220BDE8F88385B17EB10020C7
:101840006064212084F84100FEF704FFA6848146ED
:10185000E684A0682027B0F5805F02D003E0012075
:10186000E9E7206910B12E4600250EE000260CE0C5
:101870008021204600F041FEA8B9C6B116F8010B40
:1018800021684860E08C401EE084E08C4B464FF0BD
:101890000002CDF800800028EAD14FF04001204638
:1018A00000F02BFE40B184F841700320C3E735F807
:1018B000020BC0F30800E3E784F841700020BAE7A8
:1018C0007047FEE700F06ABE10B50121174800F02E
:1018D0005BFE00F0EDF9154C207100F0E9F9607144
:1018E00000F0F2F9A06000F011FAE060FFF7EAFF03
:1018F00020610121201D00F047FE0121601D00F044
:1019000043FE042104F1080000F03EFE042104F12E
:101910000C0000F039FE042104F1100000F034FE48
:101920000121601CBDE8104000F02EBEC800002060
:1019300070B5114D041E0CD04FF001000EDD00F00B
:10194000ABF9012000F0A0F901202870641EE0B27C
:101950000DE0BDE87040002000F09EB900F09CF959
:10196000002000F091F9FF202870E043C0B2BDE8EC
:10197000704000F0AFB90000DC0000202DE9F0411C
:1019800086B0002528480095019502950395816948
:1019900041F010018161816901F0100104918169B8
:1019A00041F020018161816901F020010491816988
:1019B00041F004018161816901F0040104918169B0
:1019C00041F0080181618069184F00F0080004901F
:1019D000002224213846FEF737FEDFF8548000222B
:1019E0004AF2C0014046FEF72FFE242001240326C0
:1019F0008DE8710069463846FEF72AFD4FF4204015
:101A00008DE8710069464046FEF722FDC020009037
:101A10001120CDE90104694640460394FEF718FD04
:101A200006B0BDE8F0810000001002400010014047
:101A3000000C014030B58DB000250795089509953B
:101A40000A950B951C2168460C95FEF7DFFB214C8F
:101A50004FF0804020604720C4E901054FF41C701E
:101A6000C4E903052046A561FFF77CF908B1FEF73C
:101A700032FC4FF48050079007A91648FFF71AFA76
:101A800008B1FEF728FC1348FFF7BBFB08B1FEF7CF
:101A900022FC0B950BA90F480C95FFF725F908B10F
:101AA000FEF719FC6020CDE9000502950422694685
:101AB00008480495FFF73FFB08B1FEF70CFC2068CF
:101AC000816921F4006181610248FFF7FBFA0DB0E2
:101AD00030BD0000E000002010B586B0002417489B
:101AE00000940194029403940494134905940160B2
:101AF00041F61F41C0E9011440F28F11C0E90314FF
:101B00008461FFF72FF908B1FEF7E5FB4FF4805031
:101B1000009069460948FFF7CDF908B1FEF7DBFBF5
:101B2000049404A905480594FFF7DEF8002801D0C5
:101B3000FEF7D1FB06B010BD000C004028010020CC
:101B400030B595B000240F9410941194129413940E
:101B50001C2108A81494FEF759FB20216846FEF7C3
:101B600055FB2B4D294828604720C5E901044FF457
:101B70001C70C5E903046C612846AC61FFF7F2F8FC
:101B800008B1FEF7A8FB4FF480500F900FA9204832
:101B9000FFF790F908B1FEF79EFB1D48FFF731FBF8
:101BA00008B1FEF798FB139413A919481494FFF792
:101BB0009BF808B1FEF78FFB6020CDE908040A947A
:101BC0000B940C940D94002208A911480E94FFF771
:101BD000B2FA08B1FEF77FFB2868816921F008019D
:101BE000816100944FF40050CDE9044002940194C7
:101BF0000394694606480794FFF74CF808B1FEF7CE
:101C00006AFB0348FFF75EFA15B030BD00340140AF
:101C1000700100200C4810B50A4901604FF41651BC
:101C20004160002181600C22C160C0E90412816121
:101C3000C161FFF7F3FC002803D0BDE81040FEF7B8
:101C40004ABB10BD00440040B80100200C4810B54C
:101C50000A4901604FF4E1314160002181600C22AA
:101C6000C160C0E904128161C161FFF7D7FC00289F
:101C700003D0BDE81040FEF72EBB10BD0048004069
:101C800000020020FEE7000002464FF40041014838
:101C9000FEF7DABC000C0140012801D0012200E06F
:101CA00000224FF400510148FEF7CEBC000C014069
:101CB0000449034809780078491C484340B27047FA
:101CC000DC00002010000020014800687047000080
:101CD00014000020272800D92720014948707047A8
:101CE00010000020024620210148FEF7ADBC000094
:101CF00000100140012801D0012200E0002204214F
:101D00000148FEF7A1BC0000001001400148006836
:101D10007047000018000020272800D9272001491B
:101D2000C87070471000002010B500210848FFF768
:101D300097FA04210748FFF793FA0648FFF784F85B
:101D40000348FFF781F8BDE810400348FFF77CB86F
:101D500070010020E000002028010020FEE770B59F
:101D600000240021204600F0CDF80025002000F0DE
:101D7000EBF86D1CEDB2802DF8D3641CE4B2082C96
:101D8000EFD370BD10B5064C012240212046FEF76E
:101D90005BFC20460122BDE810408021FEF754BCC8
:101DA000000C01402DE9F0410024124E0746802529
:101DB00025FA04F23A4080213046FEF745FC012224
:101DC00040213046FEF740FC002240213046FEF71D
:101DD0003BFC641CE4B2082CEAD3012240213046CB
:101DE000FEF732FC3046BDE8F04100224021FEF70C
:101DF0002BBC0000000C014010B50B4C01228021CF
:101E00002046FEF721FC012240212046FEF71CFC63
:101E1000002280212046FEF717FC20460022BDE864
:101E200010404021FEF710BC000C014010B5094CD9
:101E3000002280212046FEF707FC01224021204697
:101E4000FEF702FC20460122BDE810408021FEF78B
:101E5000FBBB0000000C014010B500204FF47A726B
:101E60000021491C9142FCD3401C9042F8D3FFF75B
:101E700089FFAE2000F057F8D52000F054F88020FC
:101E800000F051F8A82000F04EF83F2000F04BF889
:101E9000D32000F048F8002000F045F8402000F082
:101EA00042F8A12000F03FF8C82000F03CF8DA200A
:101EB00000F039F8122000F036F8812000F033F8F5
:101EC000CF2000F030F8D92000F02DF8F12000F0FC
:101ED0002AF8DB2000F027F8302000F024F8A420B6
:101EE00000F021F8A62000F01EF88D2000F01BF86D
:101EF000142000F018F8AF2000F015F8BDE81040ED
:101F0000FFF72DBF10B50C4640F0B00000F00BF805
:101F1000102040EA141000F006F804F00F00BDE8AD
:101F20001040AFF3008010B50446FFF765FF78203E
:101F3000FFF738FF0020FFF735FF2046FFF732FF9D
:101F4000BDE81040FFF772BF10B50446FFF754FF1D
:101F50007820FFF727FF4020FFF724FF2046FFF7F8
:101F600021FFBDE81040FFF761BF704770B5114D0C
:101F7000041E0CD04FF001000EDDFFF7BBFE012068
:101F8000FFF7B0FE01202870641EE0B20DE0BDE84E
:101F900070400020FFF7AEBEFFF7ACFE0020FFF759
:101FA000A1FEFF202870E043C0B2BDE87040FFF7FB
:101FB000B3BE0000DC0000207047FEF751BB30B517
:101FC0008FB028216846FEF721F914210AA8FEF7F0
:101FD0001DF901210804CDE9001000240294022516
:101FE0000491CDE907504FF4E01009906846FEF7E0
:101FF000ABFC08B172B6FEE70F20CDE90A054FF43D
:102000008060CDE90C4002210AA80E94FEF7C0FBC7
:10201000002801D072B6FEE70FB030BD7047000057
:102020000148FEF7B6BF0000E00000200148FEF7BF
:10203000B0BF0000280100200148FEF7AABF000041
:1020400070010020F0B50268204C214D214E224F36
:10205000224B4FF0804CA04209D0984207D06045F7
:1020600005D0A84203D0B04201D0B84204D122F03A
:10207000700E4A6842EA0E02A04209D0984207D088
:10208000604505D0A84203D0B04201D0B84203D188
:1020900022F44075CA682A434D6922F080022A431F
:1020A00002608A68C2620A688262A04201D09842D5
:1020B00001D109690163012141610169C90703D0A7
:1020C000016921F001010161F0BD0000002C014017
:1020D0000004004000080040000C004000340140B3
:1020E00010B501F01F030121046A99408C4304627A
:1020F000016A9A401143016210BD10B5846842EA3A
:10210000032224F47F440A432243826010BD826884
:1021100022F070020A4342F007018160704700001C
:10212000F0B5036A026A22F0010202624268846921
:10213000124E24F073050C682C4323F002058B68C3
:102140002B430D4DA84201D0B04205D123F0080722
:10215000CB683B4323F00403A84201D0B04205D131
:102160004D6922F4407215438A692A4342608461B2
:10217000496841630362F0BD002C01400034014016
:10218000F0B5026A036A23F01003036243688469AE
:102190000D6824F4E64444EA05248D6822F0200208
:1021A00042EA05120F4D104EA84201D0B04206D1AE
:1021B000CF6822F0800242EA071222F04002A842D1
:1021C00001D0B04207D14D6923F4406343EA85034F
:1021D0008D6943EA850343608461496881630262D3
:1021E000F0BD0000002C014000340140F0B5026A4F
:1021F000036A23F4807303624368C46922F40072A3
:1022000024F073050C68124E2C438D6842EA0522B7
:102210000E4DA84201D0B04206D1CF6822F4006230
:1022200042EA072222F48062A84201D0B04207D1DC
:102230004D6923F4405343EA05138D6943EA0513BE
:102240004360C4614968C1630262F0BD002C014073
:102250000034014030B5046A026A22F480520262FE
:102260004268C3690D6823F4E64343EA05238D6899
:1022700024F4005444EA0534084DA84202D0084D25
:10228000A84204D14D6922F4804242EA851242609C
:10229000C36149680164046230BD0000002C014044
:1022A0000034014010B5036A046A24F0010404629A
:1022B000846924F0F00444EA021423F00A020A4379
:1022C0008461026210BD10B5036A046A24F0100430
:1022D0000462846923F0A00324F4704444EA0232C7
:1022E00043EA01118261016210BD10B5406A00210C
:1022F000C185C184FFF75AF810BD01680C3151E85F
:10230000002F22F4907241E80023002BF5D10168E0
:10231000143151E8002F22F0010241E80023002B84
:10232000F5D1016B012909D101680C3151E8002F69
:1023300022F0100241E80023002BF5D1202180F883
:10234000421000210163704708B590F8421022291D
:1023500001D0022008BD82684FF480539A4201D117
:10236000016921B1816A9A421BD04AB10AE0026830
:10237000816A5268C2F308020A80816A891C08E0F7
:10238000026972B10268526802F07F020A70816AC3
:10239000491C8162C18D491E0904090CC18503D005
:1023A0001BE002685268F1E70168CA6822F0200267
:1023B000CA600168CA6822F48072CA6001684A690A
:1023C00022F001024A61202180F84210002141637D
:1023D000026B012A03D0FFF7CFF9002008BD01638B
:1023E00001680C3151E8002F22F0100241E800236F
:1023F000002BF5D101680A68D20602D50A6849683F
:102400000091818DFEF7D1FFE7E7000070B504462B
:1024100000680169E26821F44051114301612169BA
:10242000A0680843616908432168CA6841F20C63E7
:102430009A430243CA6020684169A26921F440714D
:10244000114341611E492068884202D1FEF746FAD5
:1024500001E0FEF733FA00EBC00101EB0012606807
:1024600064218000B2FBF0F3B3FBF1F36FF01806C8
:102470007343B2FBF0F5B2FBF0F605EB83053223B4
:1024800003EB0515B5FBF1F5B6FBF1F605F0F0052C
:1024900005EB0615B2FBF0F6B2FBF0F0B0FBF1F085
:1024A0006FF01802504306EB800003EB0010B0FB06
:1024B000F1F0216800F00F002844886070BD000032
:1024C0000038014081628285C28500214164222159
:1024D00080F84210016921B10168CA6842F4807233
:1024E000CA6001684A6942F001024A610068C16835
:1024F00041F02001C160002070472DE9F843984663
:1025000017460D460446089E24E0701C22D0FEF7B4
:10251000A1F8A0EB0800B0421AD8CEB12068C1687B
:10252000490717D5802D15D0402D13D00168C94318
:1025300009070FD401680025406800902046FFF786
:10254000DCFE0820606484F840500120BDE8F88378
:102550000320FBE72068006835EA000004D0002073
:10256000B842D2D00020F1E70120F9E70148FEF798
:102570001FBF0000B80100200148FEF719BF00008E
:1025800000020020FEE700000A4601464FF47A737D
:102590000148FFF745B90000B80100200148406834
:1025A00070470000BC0000200907090E002804DB6A
:1025B00000F1E02080F80014704700F00F0000F1F7
:1025C000E02080F8141D7047FEF752F8FFF7F7FC83
:1025D000FFF7D4F9FFF7B4FAFFF72CFAFFF77CFA0C
:1025E000FFF734FBFFF716FBFFF736FCFFF79CFB0A
:1025F000FFF76AF92820FFF79BF92820FFF7B6FCC0
:10260000F6E70000014800F0E7B800BF0000C07F17
:1026100010F0004148BF4042B0FA80F310FA03F2D4
:10262000C3F19D030BD051EAC35101EB12205306B5
:1026300038BF704700F1010008BF20F0010070476B
:102640004FF47F0C1CEAD0121EBF1CEAD11392EA91
:102650000C0F93EA0C0F00F0478090EA010F48BF7F
:1026600042F480724FF0004C4CEA00204CEA012109
:1026700002EB0302A0FB0113A2F50002002918BF20
:1026800043F001035B0028BF4FEA330342EB2242D1
:102690005FEA132C4CEBC2502EBFBCEB436FB2F57C
:1026A0007C0F70474FEA036CBCF1004F08BF20F06D
:1026B0000100B2F57C0F38BF70470BD582F0FF02E6
:1026C00012F5803FC8BF704700F1C040D8BF00F08E
:1026D0000040704700F5000C5FEA4C0C48BF7047A3
:1026E000B0F1C04000F073B890EA010F0CEAD113CA
:1026F00048BF42F48072624538BF634504D280EA25
:10270000010000F00040704710B500F01AF800BF5B
:102710008900013E00F007B800F009B85FEA410CFB
:102720005FEA1C6C08D080EA010000F050B85FEA54
:10273000400C5FEA1C6CF6D14FF00040A0F5800021
:1027400070470EF1020E2EF0030E5EF8044B244289
:1027500004D44FEA4102B2F17F4F11D84FEA40034F
:10276000B3F17F4F0CD80ED14FEAD07CB2F17F4F3E
:102770000CEB4C0C0CF1020C08BF4CEBD17C04E0D0
:102780004FF0080C01E04FEAD17C0CEB4C0324FA2B
:1027900003F404F00704B4F1040C06D20EEB840C2D
:1027A000BDE810404CF0010C6047DFE80CF0070872
:1027B00002024FF00040A0F5800010BD0846420024
:1027C00018BFD2F1807288BF00F0004010BDFF2119
:1027D00041EAD050C00570470CF00F03092B08BF29
:1027E000082000F051800A2B0BD0082B18BF70472F
:1027F00008BF1CF0400F0AD04FF000004FF000015E
:1028000070471CF0400F18BF4FF0004070471CF09D
:10281000100F08D020F0704300F07F4242EAD3014D
:102820004FEA4370704700F0604021F07F4242EA77
:10283000000201F07F4040EA727070474FF0FF02E3
:1028400012EAD0521CBF92F0FF038B42C2BFD142AA
:1028500000EBC1507047002A0AD0002B0BD0002992
:1028600000F00040A4BF40F0FE4040F4000070477C
:1028700000F00040704743024FF00B0C18BF4CF0C3
:10288000806C7FF4BFAE70471CF4801F11D01CF425
:10289000E02F03D06FEACC31490070474FF0405031
:1028A000EFF3008222F0704242EA000282F30088D5
:1028B00070474FF00000704701020203040506074D
:1028C00008090A0B0C0D0E0F10100000000000008C
:1028D00000000102030406070809000000000102CD
:1028E000030400000429000800000020E0000000AC
:1028F0006C010008E4290008E0000020D80700006F
:102900008801000801000000100000000000000025
:1029100000127A000000000000000000000000002B
:10292000A7610000D33000008C200000691800006F
:102930008713000045100000F20D0000340C000069
:10294000D80A0000C3090000DF08000022080000C8
:1029500082070000F806000081060000190600004A
:10296000BD0500006B05000022050000E104000029
:10297000A50400006F0400003D04000010040000E6
:10298000E7030000C00300009C0300007B0300007D
:102990005D03000040030000250300000C0300005D
:1029A000F4020000DE020000C9020000B5020000CF
:1029B000A2020000900200008002000070020000ED
:1029C000000000000000000000000000FFFE00000A
:1029D00000000000000000000000000000000000F7
:0429E00000000000F3
:0400000508000131BD
:00000001FF
