:020000040800F2
:1000000068080020CD010008E71900081F17000844
:10001000E5190008D3020008392300080000000099
:100020000000000000000000000000007F1D00082C
:10003000D5020008000000007D1D0008811D000899
:10004000E7010008E7010008E7010008E7010008F0
:10005000E7010008E7010008E7010008E7010008E0
:10006000E7010008E7010008E7010008E7010008D0
:10007000E7010008E7010008E7010008E7010008C0
:10008000E7010008E7010008E7010008E7010008B0
:10009000E7010008E7010008E7010008E7010008A0
:1000A000E7010008E7010008E7010008E701000890
:1000B000E7010008E7010008E7010008E701000880
:1000C000E7010008E7010008E7010008E701000870
:1000D000E7010008E7010008E70100082D230008F8
:1000E000E7010008E7010008E7010008F11D00082A
:1000F000151E0008091E0008FD1D0008E701000884
:10010000E7010008E7010008E51D0008E701000815
:10011000E7010008E7010008E7010008E70100081F
:10012000E7010008E7010008E7010008E70100080F
:1001300000F002F800F03AF80AA090E8000C8244BF
:100140008344AAF10107DA4501D100F02FF8AFF29C
:10015000090EBAE80F0013F0010F18BFFB1A43F0A5
:1001600001031847142E0000342E0000103A24BF5B
:1001700078C878C1FAD8520724BF30C830C144BF0C
:1001800004680C607047000000230024002500264E
:10019000103A28BF78C1FBD8520728BF30C148BFEA
:1001A0000B6070471FB51FBD10B510BD00F058F8AB
:1001B0001146FFF7F7FF02F01DF900F076F803B4DF
:1001C000FFF7F2FF03BC00F07DF80000094880470C
:1001D00009480047FEE7FEE7FEE7FEE7FEE7FEE729
:1001E000FEE7FEE7FEE7FEE704480549054A064B41
:1001F00070470000E31D000831010008680200207C
:100200006808002068040020680400204FF0000205
:1002100000B5134694469646203922BFA0E80C50FC
:10022000A0E80C50B1F12001BFF4F7AF090728BFD7
:10023000A0E80C5048BF0CC05DF804EB890028BF53
:1002400040F8042B08BF704748BF20F8022B11F07C
:10025000804F18BF00F8012B7047704770477047F8
:10026000754600F02BF8AE4605006946534620F06F
:100270000700854618B020B5FFF7B6FFBDE820405F
:100280004FF000064FF000074FF000084FF0000B52
:1002900021F00701AC46ACE8C009ACE8C009ACE805
:1002A000C009ACE8C0098D46704710B50446AFF3ED
:1002B00000802046BDE81040FFF781BF004870472E
:1002C0000802002001491820ABBEFEE7260002000C
:1002D0007047FEE7704772B6FEE710B590F8211040
:1002E0000022022905D00421816380F8202001200A
:1002F00010BD01680B6823F00E030B6001680B68EA
:1003000023F001030B6090F84030C46B012101FA27
:1003100003F3636080F8211080F82020104610BDA0
:100320002DE9F05F90F821100024022903D0042168
:100330008163012485E001680A6822F00E020A60E8
:1003400001680A6822F001020A603F4E3E4FB21572
:10035000DFF8F4C0DFF8F090DFF8ECA0DFF8E8B0E9
:10036000DFF8E4E00168783F13011502ACF1640C9A
:10037000A9F15009AAF13C0AABF1280BAEF1140E19
:100380004FF48018B14227D9B9420ED0614512D03E
:1003900049451DD0514518D0594518D0714501D156
:1003A000424615E0294EB14201D1012210E0274E0C
:1003B0001436B14201D110220AE0244E2836B1424F
:1003C00006D0224A3C32914201D11A4600E02A4628
:1003D0001E49091F0A602BE0B94213D0614517D0AE
:1003E000494522D051451DD059451DD0714501D1F7
:1003F00042461AE0B14202D14FF0807215E0134E2E
:10040000B14201D1012210E0104E1436B14201D1A7
:1004100010220AE00D4E2836B14206D00B4A3C327B
:10042000914201D11A4600E02A46074980394A60C4
:10043000012180F82110002180F82010416B01B1CA
:1004400088472046BDE8F09F800002400804024033
:1004500070B5044600F010F90546601C02D004484F
:100460000078044400F008F9401BA042FAD370BDA4
:10047000040000202DE9F84FDFF8C8910024A9F10D
:10048000040B23460F2709F1040AABF1040ED1E057
:100490000125A54006EA0502AA4276D1DFF8A8C1E7
:1004A0004E68A6EB0C0866452BD00DDC032E34D02D
:1004B00005DC36B3012E19D0022E2FD11BE0112EF0
:1004C00016D0122E2AD119E0B8F5881F19D006DCF3
:1004D000B8F5803F15D0B8F5801F1FD111E0B8F5F1
:1004E000001F0ED0B8F5041F18D10AE0CB6815E044
:1004F000CB681B1D12E0CB6808330FE0CB680C33D0
:100500000CE08B682BB1012B4FF0080303D0456141
:1005100004E0042302E0056100E00023FF2A01D883
:10052000064601E000F104064FEA840501D9A5F171
:100530002005D6F8008007FA05FC28EA0C0803FA23
:1005400005F548EA0508C6F800804D68ED0070D54D
:100550003E4DAE6946F00106AE61AD6924F003067A
:1005600005F0010500953A4D06EB050CDCF8085046
:10057000A607360F07FA06F825EA0805DFF8D48043
:10058000404503D14FF0000825E052E0DFF8C88075
:10059000404502D14FF001081DE0DFF8C080404522
:1005A00002D14FF0020816E0DFF8B480404502D1D6
:1005B0004FF003080FE0DFF8AC80404502D14FF068
:1005C000040808E0DFF8A080404502D14FF005089C
:1005D00001E04FF0060808FA06F848EA0508CCF8EA
:1005E00008804D68D9F80060ED024D4601D51643EC
:1005F00000E096432E604D68DAF80060AD02554683
:1006000001D5164300E096432E604D68DBF800608C
:10061000AD035D4601D5164300E096432E604D685C
:10062000DEF80060ED03754601D5164300E0964301
:100630002E60641C0A681646E2407FF429AFBDE8CC
:10064000F88F000008040140000011100010024063
:100650000000014000080140000C01400010014072
:100660000014014000180140001C01400AB1016162
:1006700070470904FBE700000148806870470000EC
:1006800004000020024881680278114481607047AC
:1006900004000020074810B5016841F01001016016
:1006A000032000F075F80F2000F006F800F024F8A1
:1006B000002010BD0020024070B50D4D04464FF4DF
:1006C0007A712878B1FBF0F00A490968B1FBF0F0C3
:1006D00000F0DCFA48B9102C07D200222146501E47
:1006E00000F036F800206C6070BD012070BD000085
:1006F00004000020100000200C4808B5816941F07A
:1007000001018161816901F001010091C16941F03C
:100710008051C161C06900F0805000900448416878
:1007200021F0E06141F00071416008BD001002401D
:1007300000000140002809DB00F01F020121914068
:100740004009800000F1E020C0F80011704700006F
:10075000F0B40E4B1B680C46C3F30223C3F107052C
:10076000042D00D90425191D072901D2002300E01A
:10077000DB1E012606FA05F1491E214099409E40E4
:10078000761E16403143F0BC01F024BE0CED00E0B3
:10079000064900F0070208684FF6FF03184040EAD8
:1007A0000220034A10430860704700000CED00E08F
:1007B0000000FA052DE9F0470F46050061D0434ED1
:1007C000306800F00700B84209D2306820F0070016
:1007D00038433060306800F00700B84251D12868D3
:1007E0003B4C810712D5400703D5606840F4E060B8
:1007F00060602878000703D5606840F4605060604E
:100800006068A96820F0F000084360602878C0079D
:1008100028D06868012810D02168022810D08907E4
:1008200000292EDA616821F0030101436160FFF7BE
:1008300023FF804641F288390DE021688903EFE704
:100840008901EDE7FFF718FFA0EB0801494502D940
:100850000320BDE8F0876068696800F00C00B0EB29
:10086000810FEFD1306800F00700B8420BD9306833
:1008700020F0070038433060306800F00700B842CD
:1008800001D00120E5E72878400705D56068E968D0
:1008900020F4E060084360602878000706D56068AF
:1008A000296920F4605040EAC100606000F038F827
:1008B0006168084AC1F30311515CC84006490860E9
:1008C00006480068FFF7F8FE0020C2E7002002405B
:1008D00000100240702900081000002008000020CD
:1008E0000448054900684968044AC1F30221515C83
:1008F000C840704710000020001002408029000806
:100900000448054900684968044AC1F3C221515CA2
:10091000C8407047100000200010024080290008E5
:100920000E4A51680E4801F00C03042B11D0082B1D
:100930000FD10C48C1F38343C903C05C0AD5516889
:10094000084AC1F34041921E515C054A5043B0FB36
:10095000F1F070470449484370470000001002401E
:1009600000127A006029000800093D002DE9F84FC7
:10097000040070D02078C04DC00749D06868C0F32B
:100980008100012807D06868C0F38100022809D1DE
:100990006868C00306D52868800339D560680028D8
:1009A000E7D035E06068B0F5803F0BD010B1B0F50E
:1009B000A02F11D0286820F480302860286820F407
:1009C000802002E0286840F480302860606890B1A0
:1009D000FFF752FE06460AE0286840F480202860AF
:1009E000F0E700BFFFF748FE801B642873D8286833
:1009F0008003F7D50CE0FFF73FFE064605E000BF99
:100A0000FFF73AFE801B6428F0D828688003F7D4EB
:100A100020789A4E80074FF001094FF0000839D531
:100A2000686810F00C0F07D06868C0F381000228D6
:100A300009D16868C00306D42868800714D52069E6
:100A4000012808D110E02069B0B1C6F80090FFF786
:100A500013FE074605E00AE1FFF70EFEC01B022861
:100A6000C4D828688007F7D52868616920F0F800A5
:100A700040EAC10028600DE0C6F80080FFF7FCFDE9
:100A8000074604E0FFF7F8FDC01B022823D82868BA
:100A90008007F7D4207800072CD57948A169D9B10F
:100AA000C0F80090FFF7E8FD074604E0FFF7E4FD1B
:100AB000C01B02280FD8686A8007F7D571484FF429
:100AC000FA510068B0FBF1F0009000BF0098411EA1
:100AD0000091FAD20EE080E0C0F80080FFF7CCFD74
:100AE000074604E0FFF7C8FDC01B022875D8686AF6
:100AF0008007F7D42078400760D5E8690027C00058
:100B000008D4E86940F08050E861E869012700F006
:100B1000805000905C480168C90513D40168834681
:100B200041F480710160FFF7A7FD824606E000BF37
:100B3000FFF7A2FDA0EB0A0064284ED8DBF8000006
:100B4000C005F5D5E06801280AD008B1052813D002
:100B5000286A20F001002862286A20F0040002E0E0
:100B6000286A40F001002862E06841F2883B98B1B1
:100B7000FFF782FD82460BE0286A40F004002862FD
:100B8000EEE700BFFFF778FDA0EB0A0159455AD800
:100B9000286A8007F6D50CE0FFF76EFD824605E077
:100BA000FFF76AFDA0EB0A0159454CD8286A800777
:100BB000F6D41FB1E86920F08050E861E06988B39D
:100BC0006968C1F38101022944D00228C6F8608017
:100BD00004D0FFF751FD044638E034E0FFF74CFD48
:100BE000074604E0FFF748FDC01B02282BD8286801
:100BF0008001F7D4206AB0F5803F05D16868A1680C
:100C000020F4003008436860D4E9080108436968AB
:100C100021F4741108436860C6F86090FFF72CFD5A
:100C2000044606E025E000BFFFF726FD001B022872
:100C300009D828688001F7D51BE000BFFFF71CFD2D
:100C4000001B022802D90320BDE8F88F2868800124
:100C5000F4D40EE00128F7D06868226A00F48031ED
:100C6000914204D1616A00F47010884201D00120E1
:100C7000EAE70020E8E700000010024000004242DE
:100C800080044242100000200070004010B5401E59
:100C9000B0F1807F01D3012010BD4FF0E0246061EE
:100CA0000F21601701F096FB0020A0610720206152
:100CB000002010BD7047704710B590F83C20012A05
:100CC00022D0012280F83C20CA688C6822F440724D
:100CD00022434C6822F4806222430C6822F40062B2
:100CE00022430C6922F4805222434C6922F40052C0
:100CF0002243C969002322F480420A4301684A64FE
:100D000080F83C30002010BD022010BD70B590F876
:100D10003C20012A2CD0012480F83C40022280F89B
:100D20003D2003685A689D6822F070060A683243C5
:100D30005A60104B02689A420ED00F4B9A420BD069
:100D4000B2F1804F08D00D4B9A4205D00C4B9A421D
:100D500002D00C4B9A4204D1496825F08003194314
:100D6000916080F83D40002180F83C10084670BD3D
:100D7000022070BD002C01400034014000040040FE
:100D800000080040000C004010B5040003D094F8A7
:100D90003D0010B107E0012010BD002084F83C00A8
:100DA000204600F01FF8022084F83D00211D206835
:100DB00001F036F8012084F8460084F83E0084F8FB
:100DC0003F0084F8400084F8410084F8420084F831
:100DD000430084F8440084F8450084F83D00002076
:100DE00010BD000008B501682548B1F1804F11D051
:100DF000244A914217D1C16941F00801C161C0691B
:100E0000002200F00800009002213220FFF7A0FC31
:100E1000322031E0C16941F00101C161C06900F0D7
:100E20000100009008BD184A9142FBD1816941F44C
:100E3000005181618069002200F400500090114649
:100E40002B20FFF785FC2B20FFF774FC00221146B6
:100E50002C20FFF77DFC2C20FFF76CFC00221146B4
:100E60002D20FFF775FC2D20FFF764FC00221146B2
:100E70002E20FFF76DFC2E20BDE80840FFF75ABC7E
:100E800000100240000C00400034014070B50446E0
:100E900090F83C000025012817D0012684F83C601A
:100EA000022084F83D002068826822F0770222F454
:100EB0007F4282600868502838D00DDC20284FD04F
:100EC00005DC90B3102811D14AE0022070BD302813
:100ED00046D040280AD13BE060282FD070280DD0A2
:100EE000B0F5805F03D0B0F5005F12D0012584F823
:100EF0003D60002084F83C00284670BDCB68D1E9F5
:100F00000121206800F0DAFF2068816841F0770154
:100F100009E0CB68D1E90121206800F0CFFF20680B
:100F2000816841F480418160E1E719E0CA6849685D
:100F3000206801F097F85021206806E0CA684968E7
:100F4000206801F0A0F86021206800F0C1FFCEE722
:100F5000CA684968206801F085F840212068F4E7F4
:100F6000226801461046F0E770472DE9F04104463B
:100F70000068C66805694FF00007A90713D5B107D7
:100F800011D5F91E01610120207720688069800752
:100F9000204602D0FFF7E8FF04E000F0B7F8204653
:100FA00000F049F92777680716D5700714D521682E
:100FB0006FF004000861022020772068806910F437
:100FC000407F204602D0FFF7CFFF04E000F09EF8FC
:100FD000204600F030F92777280715D5300713D5BC
:100FE00021686FF008000861042020772068C0693C
:100FF0008007204602D0FFF7B7FF04E000F086F834
:10100000204600F018F92777E80616D5F00614D523
:1010100021686FF010000861082020772068C069FF
:1010200010F4407F204602D0FFF79EFF04E000F05E
:101030006DF8204600F0FFF82777E80708D0F007A2
:1010400006D021686FF001000861204600F0F4F836
:10105000280608D5300606D521686FF080000861A3
:101060002046FFF727FE680608D5700606D52168DA
:101070006FF040000861204600F002F9A8060AD58A
:10108000B00608D521686FF0200008612046BDE851
:10109000F041FFF710BEBDE8F081000000B585B05B
:1010A00000210091019102910391026813490220ED
:1010B000B2F1804F14D0124B9A420FD18A6942F09C
:1010C00010028A618969039001F0100104914021A6
:1010D000CDE9001069460B48FFF7CCF905B000BD1B
:1010E0008A6942F004028A618969009001F0040172
:1010F0000190CDE9030169460348EDE70010024085
:10110000003401400010014000080140704770B5F4
:10111000044690F83C0000260D4601280FD001201F
:1011200084F83C006AB1042A1DD0082A2FD00C2A6A
:101130003FD00126002084F83C00304670BD0220DC
:1011400070BD206800F0CCFE2068816941F0080184
:1011500081612068816921F00401816120688169D1
:101160002A69114311E0206800F0EAFE20688169D5
:1011700041F4006181612068816921F480618161AD
:10118000206881692A6941EA02218161D2E72068E9
:1011900000F00CFF2068C16941F00801C1612068BE
:1011A000C16921F00401C1612068C1692A69114344
:1011B00011E0206800F02EFF2068C16941F4006151
:1011C000C1612068C16921F48061C1612068C16981
:1011D0002A6941EA0221C161ACE710B5040003D0DD
:1011E00094F83D0010B107E0012010BD002084F804
:1011F0003C00204600F01EF8022084F83D00211D2E
:10120000206800F00DFE012084F8460084F83E00BE
:1012100084F83F0084F8400084F8410084F84200DC
:1012200084F8430084F8440084F8450084F83D00C5
:10123000002010BD704770470E49884219D10E48F2
:1012400001784278914202D201F1010102E002D913
:10125000A1F1010101700849007801F1040151F880
:10126000200006490A68D062C86009684FEA500049
:10127000886370472401002014000020DC00002057
:101280007047704770470000F8B501680446086869
:10129000CA684B6910F00F0F4FF0000559D003F0EA
:1012A000010602F49077374365D0C10705D0D10518
:1012B00003D5616C41F001016164410705D5D9078F
:1012C00003D0616C41F002016164810705D5D90743
:1012D00003D0616C41F004016164010707D502F09D
:1012E0002001314303D0616C41F008016164616CFD
:1012F00000293AD0800604D5900602D5204600F099
:1013000003FF20684069616CC0F38010090700D4B6
:1013100060B3204600F0D1FE20684069400621D528
:101320002068143050E8001F21F0400140E800120E
:10133000002AF5D1E06BA8B16D494163E06BFEF77F
:10134000EFFF002811D0E06B416B01B0BDE8F04029
:10135000084783060FD593060DD52046BDE8F84013
:1013600000F0D2BE2046FFF78DFFF8BD2046FFF704
:1013700089FF6564F8BD266B2023012E7CD1C6064B
:101380007AD5D60678D508684868009048694FF045
:101390000206400640D5E16B086840680004000C76
:1013A000E8D0A28D8242E5D9E085886920282DD039
:1013B00020680C3050E8001F21F4807140E80012D2
:1013C000002AF5D12068143050E8001F21F00101F7
:1013D00040E80012002AF5D12068143050E8001FC0
:1013E00021F0400140E80012002AF5D184F8423093
:1013F000256320680C3050E8001F21F0100140E800
:101400000012002AF5D1E06BFEF767FF6663A08D3E
:10141000E18D401A81B22AE0A08DE18D401A81B29F
:10142000E08D0028A6D00029A4D022680C3252E812
:10143000000F20F4907042E80007002FF5D12068DB
:10144000143050E8002F22F0010240E80027002F5E
:10145000F5D184F84230256320680C3050E8002F25
:1014600022F0100240E80023002BF5D166632046ED
:10147000FFF707FFF8BDFFE705062BD5150629D5B1
:1014800094F841002128F5D1A068B0F5805F01D122
:101490002069B0B1206A411C21622168007848604F
:1014A000E08C401E0004000CE084E3D12068C16899
:1014B00021F08001C1602068C16841F04001C16035
:1014C000D8E7206A0088C0F308004860206A801CC2
:1014D0002062E5E74006CDD55006CBD5CA68204648
:1014E00022F04002CA6084F8413000F017F9C1E7E9
:1014F000AB20000870B5040004D094F8410000252A
:1015000010B106E0012070BD84F84050204600F084
:1015100023F8242084F841002068C16821F4005198
:10152000C160204600F052FE2068016921F490411C
:1015300001612068416921F02A0141612068C16888
:1015400041F40051C1606564202084F8410084F8B2
:1015500042006563002070BD30B585B00024009462
:101560000194029403940068184988422CD11848C9
:10157000C16941F48021C161C16901F480210491F4
:10158000816941F0080181618069124D00F0080015
:1015900004904FF48060009002200190032003909B
:1015A00069462846FEF766FFE814CDE9000469465F
:1015B00028460294FEF75EFF002203212720FFF752
:1015C000C7F82720FFF7B6F805B030BD0048004047
:1015D00000100240000C014090F84230202B01D056
:1015E0000220704721B11AB10023036300F04ABE04
:1015F0000120704770B51C49884234D11B4C1C4AED
:1016000020466178807811B1012907D014E055286F
:1016100012D110700120207060700DE0217800253B
:101620000A2911D0532801D0012903D05054491C54
:10163000217001E025706570BDE870400B49012202
:10164000891C0948FFF7C8BF9072B2F9060000F084
:101650009FFF6FF00E0101F044F9064900F0C4FF4E
:1016600005490860E6E770BDB4010020B80000201D
:10167000FC01002000003443000000202DE9F84365
:10168000044690F84100984616460D46202802D0A0
:101690000220BDE8F88385B17EB10020606421207E
:1016A00084F84100FEF7E8FFA6848146E684A0683E
:1016B0002027B0F5805F02D003E00120E9E7206930
:1016C00010B12E4600250EE000260CE080212046B9
:1016D00000F0F3FDA8B9C6B116F8010B2168486007
:1016E000E08C401EE084E08C4B464FF00002CDF8C9
:1016F00000800028EAD14FF04001204600F0DDFDD7
:1017000040B184F841700320C3E735F8020BC0F301
:101710000800E3E784F841700020BAE77047FEE76D
:101720002DE9F04186B000252848009501950295E5
:101730000395816941F010018161816901F0100117
:101740000491816941F020018161816901F02001EA
:101750000491816941F004018161816901F0040112
:101760000491816941F0080181618069184F00F09E
:1017700008000490002224213846FEF777FFDFF8A6
:10178000548000224AF2C0014046FEF76FFF242039
:10179000012403268DE8710069463846FEF76AFE8B
:1017A0004FF420408DE8710069464046FEF762FE26
:1017B000C02000901120CDE9010469464046039401
:1017C000FEF758FE06B0BDE8F081000000100240B0
:1017D00000100140000C014030B58DB00025079588
:1017E000089509950A950B951C2168460C95FEF7FE
:1017F0000DFD214C4FF0804020604720C4E90105D9
:101800004FF41C70C4E903052046A561FFF7BCFA3C
:1018100008B1FEF760FD4FF48050079007A9164805
:10182000FFF734FB08B1FEF756FD1348FFF7D5FC70
:1018300008B1FEF750FD0B950BA90F480C95FFF76B
:1018400065FA08B1FEF747FD6020CDE90005029575
:101850000422694608480495FFF759FC08B1FEF7D1
:101860003AFD2068816921F4006181610248FFF737
:1018700015FC0DB030BD0000DC00002010B586B0B6
:10188000002417480094019402940394049413498B
:101890000594016041F61F41C0E9011440F28F1127
:1018A000C0E903148461FFF76FFA08B1FEF713FD76
:1018B0004FF48050009069460948FFF7E7FA08B1F5
:1018C000FEF709FD049404A905480594FFF71EFAE4
:1018D000002801D0FEF7FFFC06B010BD000C004050
:1018E0002401002010B596B000240F941094119498
:1018F000129413941C2108A81494FEF787FC20214D
:101900006846FEF783FC284826490160C721C0E9E4
:101910000114E021C0E903148021C0E90541FFF76B
:1019200033FA08B1FEF7D7FC4FF480500F900FA99F
:101930001D48FFF7ABFA08B1FEF7CDFC1A48FFF7D8
:101940004CFC08B1FEF7C7FC139413A91648149475
:10195000FFF7DCF908B1FEF7BEFC6020CDE9080412
:101960000A940B940C940D94002208A90E480E942E
:10197000FFF7CDFB08B1FEF7AEFC00944FF400502A
:10198000CDE9044002940194039469460648079403
:10199000FFF792F908B1FEF79EFC0348FFF77EFBC4
:1019A00016B010BD003401406C0100200C4810B589
:1019B0000A4901604FF4E1314160002181600C224D
:1019C000C160C0E904128161C161FFF793FD002885
:1019D00003D0BDE81040FEF77EBC10BD00480040BB
:1019E000B4010020FEE7FEE770B500240021204688
:1019F00000F0D5F80025002000F0AFF96D1CEDB225
:101A0000802DF8D3641CE4B2082CEFD370BD000025
:101A100010B5064C012240212046FEF727FE204645
:101A20000122BDE810408021FEF720BE000C0140DD
:101A30002DE9F0410024124E0746802525FA04F2D4
:101A40003A4080213046FEF711FE01224021304607
:101A5000FEF70CFE002240213046FEF707FE641C14
:101A6000E4B2082CEAD3012240213046FEF7FEFD05
:101A70003046BDE8F04100224021FEF7F7BD0000EE
:101A8000000C014010B50B4C012280212046FEF7CE
:101A9000EDFD012240212046FEF7E8FD00228021D5
:101AA0002046FEF7E3FD20460022BDE8104040211D
:101AB000FEF7DCBD000C014010B5094C002280216E
:101AC0002046FEF7D3FD012240212046FEF7CEFD41
:101AD00020460122BDE810408021FEF7C7BD00006E
:101AE000000C014010B500204FF47A720021491C0F
:101AF0009142FCD3401C9042F8D3FFF789FFAE20FF
:101B000000F01AF9D52000F017F9802000F014F940
:101B1000A82000F011F93F2000F00EF9D32000F0CA
:101B20000BF9002000F008F9402000F005F9A12091
:101B300000F002F9C82000F0FFF8DA2000F0FCF80D
:101B4000122000F0F9F8812000F0F6F8CF2000F024
:101B5000F3F8D92000F0F0F8F12000F0EDF8DB20E8
:101B600000F0EAF8302000F0E7F8A42000F0E4F8F4
:101B7000A62000F0E1F88D2000F0DEF8142000F03F
:101B8000DBF8AF2000F0D8F8BDE81040FFF72CBF1D
:101B90000246012000E05043491EFCD2704710B5B8
:101BA0000C4640F0B00000F0C7F8102040EA1410D6
:101BB00000F0C2F804F00F00BDE8104000F0BCB81F
:101BC0002DE9F0410746CE004000083E801E154634
:101BD0004FF0FF38F1B2C0B2FFF7E1FF1148002427
:101BE00000EB05152819A0F5805090F8000E00F0C4
:101BF000B4F8641CE4B2082CF4D308EB4700F1B24B
:101C0000C0B2FFF7CCFF00242819A0F5805090F84F
:101C1000080E00F0A2F8641CE4B2082CF4D3BDE86E
:101C2000F0810000882900082DE9F04780461D4614
:101C300014460F461046089E00F06EFC814600F0E8
:101C4000A7FC214600F09CFD044610F1FF4F01D394
:101C500080F000442B464A463946404600F040F8A2
:101C60003D44681CC1B22E224046FFF7A9FF314611
:101C70000A20FFF78DFF00F0A3FC214600F0B4FC22
:101C80004FF07C5100F0E0FB00F062FC0246AD1C1E
:101C9000E9B233464046BDE8F047AFF300802DE996
:101CA000F04700241D461646884681460A2713E061
:101CB000291B0A20491EFFF76BFFB6FBF0F0B0FBB3
:101CC000F7F107FB110208EB0400C1B248463032BD
:101CD000FFF776FF641CE4B2AC42E9D3BDE8F087BD
:101CE0002DE9F0471E4614008846814604D42B2275
:101CF000FFF766FF254603E02D22FFF761FF6542EF
:101D000000240A2714E0311B0A20491EFFF740FF78
:101D1000B5FBF0F0B0FBF7F107FB110208EB040094
:101D2000401CC1B248463032FFF74AFF641CE4B29F
:101D3000B442E8D3BDE8F08710B50446FFF7A2FE31
:101D40007820FFF775FE0020FFF772FE2046FFF7B0
:101D50006FFEBDE81040FFF7AFBE10B50446FFF7B9
:101D600091FE7820FFF764FE4020FFF761FE2046D9
:101D7000FFF75EFEBDE81040FFF79EBE704770475C
:101D8000FEF780BC30B58FB028216846FEF73EFADA
:101D900014210AA8FEF73AFA01210804CDE900103F
:101DA0000024029402250491CDE907504FF4E0107D
:101DB00009906846FEF7DAFD08B172B6FEE70F201B
:101DC000CDE90A054FF48060CDE90C4002210AA854
:101DD0000E94FEF7EFFC002801D072B6FEE70FB0BC
:101DE00030BD70470148FFF7C0B800002401002053
:101DF0000148FFF7BAB800006C0100200148FFF766
:101E0000B4B800006C0100200148FFF7AEB8000034
:101E10006C0100200148FFF7A8B800006C01002009
:101E2000F0B50268204C214D214E224F224B4FF03D
:101E3000804CA04209D0984207D0604505D0A84206
:101E400003D0B04201D0B84204D122F0700E4A68EB
:101E500042EA0E02A04209D0984207D0604505D060
:101E6000A84203D0B04201D0B84203D122F4407559
:101E7000CA682A434D6922F080022A4302608A68B8
:101E8000C2620A688262A04201D0984201D1096907
:101E90000163012141610169C90703D0016921F092
:101EA00001010161F0BD0000002C01400004004070
:101EB00000080040000C00400034014010B5846868
:101EC00042EA032224F47F440A432243826010BD85
:101ED000826822F070020A4342F007018160704775
:101EE000F0B5036A026A22F0010202624268846964
:101EF000124E24F073050C682C4323F002058B6806
:101F00002B430D4DA84201D0B04205D123F0080764
:101F1000CB683B4323F00403A84201D0B04205D173
:101F20004D6922F4407215438A692A4342608461F4
:101F3000496841630362F0BD002C01400034014058
:101F4000F0B5026A036A23F01003036243688469F0
:101F50000D6824F4E64444EA05248D6822F020024A
:101F600042EA05120F4D104EA84201D0B04206D1F0
:101F7000CF6822F0800242EA071222F04002A84213
:101F800001D0B04207D14D6923F4406343EA850391
:101F90008D6943EA85034360846149688163026215
:101FA000F0BD0000002C014000340140F0B5026A91
:101FB000036A23F4807303624368C46922F40072E5
:101FC00024F073050C68124E2C438D6842EA0522FA
:101FD0000E4DA84201D0B04206D1CF6822F4006273
:101FE00042EA072222F48062A84201D0B04207D11F
:101FF0004D6923F4405343EA05138D6943EA051301
:102000004360C4614968C1630262F0BD002C0140B5
:102010000034014030B5046A026A22F48052026240
:102020004268C3690D6823F4E64343EA05238D68DB
:1020300024F4005444EA0534084DA84202D0084D67
:10204000A84204D14D6922F4804242EA85124260DE
:10205000C36149680164046230BD0000002C014086
:102060000034014010B5036A046A24F001040462DC
:10207000846924F0F00444EA021423F00A020A43BB
:102080008461026210BD10B5036A046A24F0100472
:102090000462846923F0A00324F4704444EA023209
:1020A00043EA01118261016210BD10B5406A00214E
:1020B000C185C184FFF7E6F810BD01680C3151E815
:1020C000002F22F4907241E80023002BF5D1016823
:1020D000143151E8002F22F0010241E80023002BC7
:1020E000F5D1016B012909D101680C3151E8002FAC
:1020F00022F0100241E80023002BF5D1202180F8C6
:10210000421000210163704708B590F8421022295F
:1021100001D0022008BD82684FF480539A4201D159
:10212000016921B1816A9A421BD04AB10AE0026872
:10213000816A5268C2F308020A80816A891C08E039
:10214000026972B10268526802F07F020A70816A05
:10215000491C8162C18D491E0904090CC18503D047
:102160001BE002685268F1E70168CA6822F02002A9
:10217000CA600168CA6822F48072CA6001684A694C
:1021800022F001024A61202180F8421000214163BF
:10219000026B012A03D0FFF72DFA002008BD01636E
:1021A00001680C3151E8002F22F0100241E80023B1
:1021B000002BF5D101680A68D20602D50A68496881
:1021C0000091818DFFF75DF8E7E7000070B50446E8
:1021D00000680169E26821F44051114301612169FD
:1021E000A0680843616908432168CA6841F20C632A
:1021F0009A430243CA6020684169A26921F4407190
:10220000114341611E492068884202D1FEF778FBE4
:1022100001E0FEF765FB00EBC00101EB0012606816
:1022200064218000B2FBF0F3B3FBF1F36FF018060A
:102230007343B2FBF0F5B2FBF0F605EB83053223F6
:1022400003EB0515B5FBF1F5B6FBF1F605F0F0056E
:1022500005EB0615B2FBF0F6B2FBF0F0B0FBF1F0C7
:102260006FF01802504306EB800003EB0010B0FB48
:10227000F1F0216800F00F002844886070BD000074
:102280000038014081628285C2850021416422219B
:1022900080F84210016921B10168CA6842F4807275
:1022A000CA6001684A6942F001024A610068C16877
:1022B00041F02001C160002070472DE9F8439846A5
:1022C00017460D460446089E24E0701C22D0FEF7F7
:1022D000D3F9A0EB0800B0421AD8CEB12068C1688B
:1022E000490717D5802D15D0402D13D00168C9435B
:1022F00009070FD401680025406800902046FFF7C9
:10230000DCFE0820606484F840500120BDE8F883BA
:102310000320FBE72068006835EA000004D00020B5
:10232000B842D2D00020F1E70120F9E70148FEF7DA
:10233000ABBF0000B4010020FEE7000010B505218E
:10234000114800F025F810480521401D00F020F844
:102350000D4805210A3000F01BF80B4805210F300D
:1023600000F016F808480521143000F011F806486E
:102370000521193000F00CF803490122BDE8104096
:10238000491E0248FFF728B9BB000020B401002015
:102390000A4610B501464FF47A730748FFF76EF905
:1023A0000D2000F00BF80A2000F008F8BDE81040FE
:1023B000C820FEF74DB80000B401002001B54FF46D
:1023C0007A73012269460248FFF758F908BD0000F8
:1023D000B40100200907090E002804DB00F1E02009
:1023E00080F80014704700F00F0000F1E02080F842
:1023F000141D704708B5FEF74DF9FFF7C3FCFFF752
:102400008FF9FFF76FFAFFF7E7F9FFF737FAFFF7F2
:10241000CDFAFFF767FBFFF791FF0424084F094E41
:10242000022503233A46012102200094FFF7FCFB1A
:1024300000953268032301210846FFF7F5FBF0E71A
:102440004407E5420000002090EA010F48BF81F0F8
:10245000004100F1A681421A3CBF801A89184FEA58
:10246000D0524FF07F4C1CEA410FA2EBD15318BF62
:102470009CEA026F00F03B804FF0004C4CEA0020D9
:102480004CEA012121FA03FC10EB0C0C1ED202F1E4
:10249000FF325FEA1C2040EBC25038BF70471CF08F
:1024A0007F0F4FEA400C18BFBCF17F4F38BF704719
:1024B000C3F12003994008BF20F00100BCF17F4F19
:1024C00038BF7047A0F1C04000F055B94FEA3C005A
:1024D000000A40EBC25028BF1CF0FF0F4FEA400C2F
:1024E000E6D018BFBCF17F4F38BF7047EAE79CEADF
:1024F000026F05D010EA5C0F08BF00F00040704783
:1025000010B500F0F2F800BF64FBBE3E014800F0D9
:10251000B6B900BF0000C07F41000B0ED3F19E0290
:1025200008D950F400034FEA032323FA02F048BF0E
:102530004042704710B500F0D8F800BF499224809F
:10254000002070476FF0004282EA200070470000D0
:10255000C10DD1F19E0206DB4FEA002343F0004398
:1025600023FA02F07047004207D54FEA4001B1F16B
:10257000FE4F02D24FF00000704710B500F0B5F8E2
:1025800049922480002070476FEA200070470000C5
:1025900010F0004148BF4042B0FA80F310FA03F255
:1025A000C3F19D030BD051EAC35101EB1220530636
:1025B00038BF704700F1010008BF20F001007047EC
:1025C000B0FA80F310FA03F2C3F19D030AD0D905E3
:1025D00001EB1220530638BF704700F1010008BF1D
:1025E00020F00100704700004FF47F0C1CEAD0126D
:1025F0001EBF1CEAD11392EA0C0F93EA0C0F00F0F5
:10260000478090EA010F48BF42F480724FF0004CBF
:102610004CEA00204CEA012102EB0302A0FB01136B
:10262000A2F50002002918BF43F001035B0028BF98
:102630004FEA330342EB22425FEA132C4CEBC250C9
:102640002EBFBCEB436FB2F57C0F70474FEA036CB3
:10265000BCF1004F08BF20F00100B2F57C0F38BF7D
:1026600070470BD582F0FF0212F5803FC8BF70475C
:1026700000F1C040D8BF00F00040704700F5000CEA
:102680005FEA4C0C48BF7047B0F1C04000F073B82F
:1026900090EA010F0CEAD11348BF42F48072624500
:1026A00038BF634504D280EA010000F00040704763
:1026B00010B500F01AF800BF8900013E00F007B81D
:1026C00000F009B85FEA410C5FEA1C6C08D080EAB0
:1026D000010000F050B85FEA400C5FEA1C6CF6D1D4
:1026E0004FF00040A0F5800070470EF1020E2EF072
:1026F000030E5EF8044B244204D44FEA4102B2F1C7
:102700007F4F11D84FEA4003B3F17F4F0CD80ED161
:102710004FEAD07CB2F17F4F0CEB4C0C0CF1020C69
:1027200008BF4CEBD17C04E04FF0080C01E04FEA0D
:10273000D17C0CEB4C0324FA03F404F00704B4F14D
:10274000040C06D20EEB840CBDE810404CF0010CDA
:102750006047DFE80CF0070802024FF00040A0F5E8
:10276000800010BD0846420018BFD2F1807288BFB9
:1027700000F0004010BDFF2141EAD050C005704775
:1027800080F0004090EA010F7FF565AE81F00041D6
:1027900000F007B890EA010F48BF81F000413FF513
:1027A0005AAE421A04D882F00042A0EB0200114453
:1027B0004FEAD0524FF07F4C1CEA410FA2EBD153AD
:1027C00018BF9CEA026F4AD04FF0004C4CEA002040
:1027D0004CEA012121FA03FCB0EB0C0C0FD412F0EF
:1027E000FE0F36D05FEA4C001DD5001240EBC25000
:1027F00038BF70471CF03F0F18BF70470BE0A2F1C5
:1028000001025FEA1C2040EBC25038BF70471CF049
:102810007F0F18BF7047C3F12003994014BF401EBB
:1028200020F00100704780084FEA122308BF70476C
:10283000B0FA80FCA2EB0C02CCF1280C60FA0CF090
:1028400093EA122F04BF00EBC25070474FEAC370E7
:102850007047130A5FEADC1008BF7047F6E79CEA8E
:10286000026F04D010EA5C0F08BF0020704710B55B
:10287000FFF73BFF40DFF63E81F0004070470CF071
:102880000F03092B08BF082000F051800A2B0BD042
:10289000082B18BF704708BF1CF0400F0AD04FF03C
:1028A00000004FF0000170471CF0400F18BF4FF0C0
:1028B000004070471CF0100F08D020F0704300F06B
:1028C0007F4242EAD3014FEA4370704700F0604014
:1028D00021F07F4242EA000201F07F4040EA72703C
:1028E00070474FF0FF0212EAD0521CBF92F0FF0374
:1028F0008B42C2BFD14200EBC1507047002A0AD0C0
:10290000002B0BD0002900F00040A4BF40F0FE4097
:1029100040F40000704700F00040704743024FF061
:102920000B0C18BF4CF0806C7FF4F0AD70471CF4BA
:10293000801F11D01CF4E02F03D06FEACC31490086
:1029400070474FF04050EFF3008222F0704242EAAD
:10295000000282F3008870474FF0000070470102C8
:1029600002030405060708090A0B0C0D0E0F1010D0
:10297000000000000000000001020304060708092F
:10298000000000000102030400000000000000003D
:102990000000000000000000000000F8000000003F
:1029A000000000333000000000100C06100C060080
:1029B000000000000000000040C07840C0784000E7
:1029C000043F04043F040400007088FC0830000049
:1029D000001820FF211E0000F008F000E0180000A1
:1029E00000211C031E211E0000F00888700000005A
:1029F0001E2123241927211010160E0000000000AC
:102A00000000000000000000000000E018040200C8
:102A1000000000071820400000020418E000000039
:102A20000040201807000000404080F08040400037
:102A30000202010F01020200000000F0000000008D
:102A40000101011F01010100000000000000000061
:102A500080B07000000000000000000000000000D6
:102A6000000101010101010100000000000000005F
:102A700000303000000000000000000080601804FA
:102A8000006018060100000000E010080810E000D7
:102A9000000F102020100F00001010F800000000A0
:102AA0000020203F202000000070080808887000E7
:102AB0000030282422213000003008888848300067
:102AC0000018202020110E000000C02010F8000087
:102AD00000070424243F240000F808888808080020
:102AE0000019212020110E0000E010888818000035
:102AF000000F112020110E0000380808C838080007
:102B00000000003F00000000007088080888700086
:102B1000001C222121221C0000E010080810E00007
:102B20000000312222110F00000000C0C000000090
:102B300000000030300000000000008000000000B5
:102B400000008060000000000000804020100800AD
:102B50000001020408102000404040404040400076
:102B60000404040404040400000810204080000051
:102B70000020100804020100007048080808F00056
:102B80000000003036010000C030C828E810E00026
:102B90000718272423140B000000C038E0000000B1
:102BA000203C23020227382008F88888887000001B
:102BB000203F202020110E00C030080808083800EF
:102BC000071820202010080008F808080810E00066
:102BD000203F202020100F0008F88888E808100007
:102BE000203F20202320180008F88888E8081000DB
:102BF000203F200003000000C03008080838000013
:102C000007182020221E020008F808000008F80813
:102C1000203F210101213F20000808F8080800009A
:102C20000020203F2020000000000808F8080800CD
:102C3000C08080807F00000008F888C02818080045
:102C4000203F20012638200008F80800000000007E
:102C5000203F20202020300008F8F800F8F8080075
:102C6000203F003F003F200008F830C00008F8086F
:102C7000203F200007183F00E01008080810E0007F
:102C80000F10202020100F0008F808080808F00096
:102C9000203F210101010000E01008080810E000B9
:102CA0000F18242438504F0008F88888888870004E
:102CB000203F2000030C30200070880808083800EE
:102CC0000038202121221C00180808F808081800E4
:102CD0000000203F2000000008F808000008F80865
:102CE000001F202020201F000878880000C8380816
:102CF000000007380E010000F80800F80008F8008E
:102D0000033C0700073C0300081868808068180827
:102D100020302C03032C30200838C800C8380800A5
:102D20000000203F2000000010080808C8380800F4
:102D30002038262120201800000000FE0202020098
:102D40000000007F40404000000C30C00000000048
:102D5000000000010638C00000020202FE00000070
:102D6000004040407F000000000004020202040016
:102D70000000000000000000000000000000000053
:102D8000808080808080808000020204000000003B
:102D90000000000000000000000080808080000033
:102DA0000019242222223F2008F800808000000021
:102DB000003F112020110E000000008080800000E4
:102DC000000E112020201100000000808088F800F3
:102DD000000E112020103F20000080808080000025
:102DE000001F222222221300008080F08888881889
:102DF0000020203F20200000000080808080800094
:102E0000006B94949493600008F800808080000028
:102E1000203F210000203F20008098980000000003
:102E20000020203F20200000000000809898000033
:102E300000C08080807F000008F800008080800053
:102E4000203F24022D302000000808F80000000078
:102E50000020203F20200000808080808080800033
:102E6000203F20003F20003F8080008080800000C5
:102E7000203F210000203F20000080808080000053
:102E8000001F202020201F00808000808000000084
:102E900080FFA12020110E000000008080808000B3
:102EA000000E112020A0FF808080800080808000A4
:102EB00020203F21200001000000808080808000D1
:102EC0000033242424241900008080E08080000046
:102ED0000000001F20200000808000000080800093
:102EE000001F202020103F208080800000808080F4
:102EF00000010E3008060100808000800080808084
:102F00000F300C030C300F000080800080808000A8
:102F10000020312E0E3120008080800000808080D3
:102F200080818E7018060100008080808080800083
:102F30000021302C2221300000000000807C0202A1
:102F400000000000003F404000000000FF000000C3
:102F500000000000FF0000000002027C8000000072
:102F60000040403F0000000000060101020204048E
:102F70000000000000000000982F00080000002062
:102F8000DC0000006C01000874300008DC00002048
:102F90008C0700008801000800000000010000000C
:102FA000100000000000000000127A000000000085
:102FB000A7610000D33000008C20000069180000D9
:102FC0008713000045100000F20D0000340C0000D3
:102FD000D80A0000C3090000DF0800002208000032
:102FE00082070000F80600008106000019060000B4
:102FF000BD0500006B05000022050000E104000093
:10300000A50400006F0400003D040000100400004F
:10301000E7030000C00300009C0300007B030000E6
:103020005D03000040030000250300000C030000C6
:10303000F4020000DE020000C9020000B502000038
:10304000A202000090020000800200007002000056
:10305000000000FFAA6988B5FFAA760000FFAA0356
:103060000B00FFAA040600FFAA000000FFAA00FF51
:04307000000000005C
:0400000508000131BD
:00000001FF
